:020000040800F2
:10000000080500209D010008531100087F1000081A
:1000100051110008190200089514000800000000A2
:100020000000000000000000000000007711000840
:100030001B0200080000000075110008991200085A
:10004000B7010008B7010008B7010008B7010008B0
:10005000B7010008B7010008B7010008B7010008A0
:10006000B7010008B7010008B7010008B701000890
:10007000B7010008B7010008B7010008B701000880
:10008000B7010008B7010008B7010008B701000870
:10009000B7010008B7010008B7010008B701000860
:1000A000B7010008B7010008B7010008B701000850
:1000B000B7010008B7010008B7010008B701000840
:1000C000B7010008B7010008B7010008B701000830
:1000D000B7010008B7010008B7010008B701000820
:1000E000B7010008B7010008B7010008B701000810
:1000F000B7010008B7010008B7010008B701000800
:10010000000000000000000000000000B70100082F
:10011000B7010008B701000875130008B70100080F
:10012000B7010008B7010008B7010008B7010008CF
:10013000B7010008B701000800000000000000003F
:10014000B7010008B7010008B7010008000000006F
:10015000000000000000000000000000000000009F
:100160000000000000000000B7010008B70100080F
:10017000B7010008000000000000000000000000BF
:1001800000000000B7010008DFF80CD000F032F8E2
:1001900000480047751800080805002006488047F9
:1001A00006480047FEE7FEE7FEE7FEE7FEE7FEE75C
:1001B000FEE7FEE7FEE7FEE70D13000889010008F1
:1001C0000649074A0868504343F239021044086060
:1001D0004008704701490860704700006C0000202B
:1001E0006D4EC641421C10F8011B0029FBD1801A3C
:1001F00070470000064C074D06E0E06840F0010340
:1002000094E8070098471034AC42F6D3FFF7C0FFDC
:10021000AC1A0008CC1A0008FEE770472DE9F0413F
:1002200001F074FB3249002001F088FA30490120C6
:10023000083101F083FA2E490220103101F07EFAD4
:100240002B490320203101F079FA29490420183183
:1002500001F074FA26490520283101F06FFA24498B
:100260000620383101F06AFA21490720303101F0C7
:1002700065FA204F0025002407EB8506E1B2E8B2BD
:1002800001F0A4FB305D4C2818D008DC2D280FD0DD
:10029000432824D044281ED0452812D121E04D28DF
:1002A00021D04E2821D0522806D0632809D114E04D
:1002B00011A001F037FB04E0012000E0002001F074
:1002C000A3FB641C042CD9DB6D1C122DD3DBBDE811
:1002D000F04101F045BA0220F1E70320EFE70420E6
:1002E000EDE70520EBE70620E9E70720E7E7000058
:1002F00008000020B0000020200000000E48006828
:10030000092817D2DFE800F0160507090B0D0F11B9
:10031000130002200CE003200AE0042008E005207E
:1003200006E0062004E0072002E0082000E00A20A2
:1003300000F022BF704700000000002070B50446A6
:1003400000F0DCF80546601C02D004480078044444
:1003500000F0D4F8401BA042FAD370BD5C0000202E
:100360002DE9F84FDFF864B100234FF0010C4FF096
:10037000030A4FF00F090BF1040EA0E00CFA03F68C
:10038000324072D04C68022C01D0122C0ED1DC0805
:1003900000EB8408D8F820405D07EF0E09FA07F556
:1003A000AC430D69BD402543C8F8205007685D0087
:1003B00091F804800AFA05F408F00308A74308FA44
:1003C00005F848EA0708C0F800804F68012F05D0FB
:1003D000022F03D0112F01D0122F11D18768D1F82D
:1003E0000C80A74308FA05F848EA0708C0F8088017
:1003F0004768B7430E79C6F300169E403E434660F9
:10040000C668A6438C68AC403443C4604C68E400C2
:1004100054D52F4CA56945F00105A561A46923F0C9
:10042000030504F0010400942A4C2E19B4689D07BA
:100430002F0F09FA07F5AC43B0F1904F04D0264DC9
:10044000A84203D1012512E0002510E0234DA84267
:1004500001D102250BE0224DA84201D1032506E07F
:10046000204DA84202D1042501E027E00525BD402A
:100470002543B560DBF800405D464E689443F603C3
:1004800000D514432C60DEF8004075464E68944356
:10049000B60300D514432C600C4D08352C684E680B
:1004A0009443F60200D514432C60084D0C352C689B
:1004B0004E689443B60200D514432C605B1C0A6856
:1004C00032FA03F47FF45AAFBDE8F88F000401401C
:1004D00000100240000001400004004800080048ED
:1004E000000C00480010004842694A4042617047D1
:1004F0000AB18161704781627047000001488068DD
:10050000704700005C0000200248816802781144B6
:10051000816070475C000020074810B5016841F019
:1005200010010160032000F095F8002000F006F8AB
:1005300000F024F8002010BD0020024070B50D4DE1
:1005400004464FF47A712878B1FBF0F00A49096843
:10055000B1FBF0F000F03FFC48B9102C07D20022AC
:100560002146501E00F056F800206C6070BD01203E
:1005700070BD00005C000020680000201E4808B527
:10058000816941F001018161816901F001010091FE
:10059000C16941F08051C161C06900F08050009094
:1005A000072000F057F8002211466FF00B0000F012
:1005B00031F8002211466FF00A0000F02BF80022FB
:1005C00011466FF0090000F025F800221146501F77
:1005D00000F020F800221146101F00F01BF8002246
:1005E0001146901E00F016F80022BDE808401146A2
:1005F000501E00F00FB800000010024000F01F0273
:10060000012191404009800000F1E020C0F8001174
:1006100070470000F0B40E4B1B680C46C3F3022376
:10062000C3F10705042D00D90425191D072901D29E
:10063000002300E0DB1E012606FA05F1491E2140D9
:1006400099409E40761E16403143F0BC00F082BDBA
:100650000CED00E0064900F0070208684FF6FF03C2
:10066000184040EA0220034A104308607047000027
:100670000CED00E00000FA052DE9F0470F460500FB
:1006800069D04A4E306800F00700B84209D230689D
:1006900020F0070038433060306800F00700B842AF
:1006A00059D12878424C800705D56068A96820F0A8
:1006B000F000084360602878C0073DD069680120D9
:1006C00001290DD0022923D05FF0020393FAA3F28F
:1006D000B2FA82F242F02002520904D0226803E00A
:1006E0004FF40033F2E7626A93FAA3F3B3FA83F3A9
:1006F00003F01F03984002422DD0606820F00300F1
:1007000008436060FFF7FAFE804641F288390CE04A
:100710004FF00073DAE700BFFFF7F0FEA0EB08012F
:10072000494502D90320BDE8F0876068696800F098
:100730000C00B0EB810FEFD1306800F00700B84239
:100740000BD9306820F0070038433060306800F083
:100750000700B84201D00120E5E72878400705D519
:100760006068E96820F4E06008436060287800076A
:1007700006D56068296920F4605040EAC1006060D5
:1007800000F022F86168F02292FAA2F201F0F00182
:10079000B2FA82F2D140074A515CC840064908606B
:1007A0000020FFF7CBFE0020BDE700000020024044
:1007B000001002409C1A00086800002001480068F0
:1007C0007047000068000020144B10B55A681448A8
:1007D00002F00C0104291DD008291BD14FF470141C
:1007E00094FAA4F402F47011B4FA84F4E1400D4CCC
:1007F000DB6A615C0F2494FAA4F403F00F03B4FAEB
:1008000084F4E340074C1034D203E35C03D5B0FB1F
:10081000F3F0484310BD0448484310BD00100240A7
:1008200000127A007C1A000800093D002DE9F84FFB
:10083000040071D02078FB4DC0074FF0010625D091
:1008400068687704C0F38100012807D06868C0F3A6
:10085000810002281BD16868C00318D597FAA7F059
:10086000B0FA80F040F02000400901D0286800E094
:10087000686A97FAA7F1B1FA81F101F01F0106FA4F
:1008800001F1084265D060680028D2D061E060685C
:10089000B0F5803F0BD010B1B0F5A02F17D028686D
:1008A00020F480302860286820F4802002E0286846
:1008B00040F480302860E86AA16820F00F00084307
:1008C000E862606820B3FFF719FE80460AE02868F6
:1008D00040F480202860EAE7FFF710FEA0EB080054
:1008E000642872D897FAA7F0B0FA80F040F02000A0
:1008F000400901D0286800E0686A97FAA7F1B1FAC8
:1009000081F101F01F0106FA01F10842E4D020E074
:10091000FFF7F4FD804607E0C7E000BFFFF7EEFDFC
:10092000A0EB08006428DCD897FAA7F0B0FA80F0B2
:1009300040F02000400901D0286800E0686A97FA7A
:10094000A7F1B1FA81F101F01F0106FA01F10842A5
:10095000E4D12078DFF8D08280074FF0000A4FF012
:10096000020759D568684FF0F80B10F00C0F07D04C
:100970006868C0F3810002281BD16868C00318D4DE
:1009800097FAA7F0B0FA80F040F02000400901D0BB
:10099000286800E0686A97FAA7F1B1FA81F101F0DE
:1009A0001F0106FA01F108422BD0206901287CD1F1
:1009B00027E0206988B396FAA6F0B0FA80F048F8EC
:1009C0002060FFF79BFD814606E055E1FFF796FDAD
:1009D000A0EB0900022884D897FAA7F0B0FA80F0BB
:1009E00040F02000400901D0286800E0686A97FACA
:1009F000A7F1B1FA81F101F01F0106FA01F10842F5
:100A0000E4D028689BFAABF26169B2FA82F220F076
:100A1000F80091400843286025E0FFE796FAA6F128
:100A2000B1FA81F148F821A0FFF768FD814605E0A1
:100A3000FFF764FDA0EB09000228CCD897FAA7F0D5
:100A4000B0FA80F040F02000400901D0286800E0B2
:100A5000686A97FAA7F1B1FA81F101F01F0106FA6D
:100A600001F10842E4D1207800076AD5A069A0B35B
:100A700096FAA6F0B0FA80F008EB8000C0F8806427
:100A8000FFF73CFD814605E0FFF738FDA0EB0900CC
:100A90000228A0D897FAA7F0B0FA80F040F06000E2
:100AA000B6EB501F02D128680CE077E197FAA7F067
:100AB000B0FA80F040F06000B7EB501F01D1286A17
:100AC00000E0686A97FAA7F1B1FA81F101F01F011D
:100AD00006FA01F21042D7D033E0FFE796FAA6F00B
:100AE000B0FA80F008EB8000C0F880A4FFF706FDA4
:100AF000814605E0FFF702FDA0EB090002289CD823
:100B000097FAA7F0B0FA80F040F06000B6EB501F03
:100B100001D128680BE097FAA7F0B0FA80F040F016
:100B20006000B7EB501F01D1286A00E0686A97FAAD
:100B3000A7F1B1FA81F101F01F0106FA01F21042AA
:100B4000D8D12078400774D5E8694FF00009C0007B
:100B500009D4E86940F08050E861E8694FF0010984
:100B600000F08050009031480168C90512D4016836
:100B700041F480710160FFF7C1FC834606E000BFCD
:100B8000FFF7BCFCA0EB0B00642875D82748006871
:100B9000C005F5D5E06801280AD008B1052811D0B4
:100BA000286A20F001002862286A20F0040002E090
:100BB000286A40F001002862E068C8B3FFF79EFC95
:100BC00083460DE0286A40F004002862F0E700BF89
:100BD000FFF794FCA0EB0B0141F2883081424BD827
:100BE00097FAA7F0B0FA80F040F04000B6EB501F43
:100BF00001D128680BE097FAA7F0B0FA80F040F036
:100C00004000B7EB501F01D1286A00E0686A97FAEC
:100C1000A7F1B1FA81F101F01F0106FA01F21042C9
:100C2000D6D035E000100240000042420070004083
:100C300000E034E0FFF762FC834607E0FFF75EFC6C
:100C4000A0EB0B0141F28830814215D897FAA7F04A
:100C5000B0FA80F040F04000B6EB501F01D1286898
:100C60000CE097FAA7F0B0FA80F040F04000B7EB44
:100C7000501F02D1286A01E083E0686A97FAA7F161
:100C8000B1FA81F101F01F0106FA01F21042D5D14B
:100C9000B9F1000F03D0E86920F08050E861E06905
:100CA00080B36968C1F38101022977D04FF0807168
:100CB0004F00022809D091FAA1F0B0FA80F048F86C
:100CC00020A0FFF71BFC04465EE050468A4691FADE
:100CD000A1F1B1FA81F1C14648F82100FFF70EFCFD
:100CE000804605E0FFF70AFCA0EB0800022848D880
:100CF00097FAA7F0B0FA80F040F02000400902D047
:100D0000286801E056E0686A97FAA7F1B1FA81F124
:100D100001F01F0106FA01F10842E3D1D4E90810FD
:100D20000843696821F47411084368609AFAAAF0CC
:100D3000B0FA80F049F82060FFF7E0FB044604E0D9
:100D4000FFF7DCFB001B02281BD897FAA7F0B0FACC
:100D500080F040F02000400901D0286800E0686A77
:100D600097FAA7F1B1FA81F101F01F0106FA01F13A
:100D70000842E5D01EE000BFFFF7C0FB001B0228C1
:100D800002D90320BDE8F88F97FAA7F0B0FA80F0F7
:100D900040F02000400902D0286801E00CE0686AB9
:100DA00097FAA7F1B1FA81F101F01F0106FA01F1FA
:100DB0000842E1D10020E5E70120E3E74FF0E02120
:100DC0000428086903D020F004000861704740F04F
:100DD0000400FAE7704710B5401EB0F1807F01D3E0
:100DE000012010BD4FF0E02460610F21601700F07A
:100DF000B1F90020A06107202061002010BD10B5CE
:100E0000FFF7E8FF10BD70477047704730B590F8A6
:100E10003C20012A1FD0012280F83C200268536840
:100E200094680E4DAA4202D00D4DAA4203D123F47C
:100E300070054B682B4323F070050B6889682B43C2
:100E400024F080042143536002689160002180F8FF
:100E50003C10084630BD022030BD0000002C01408F
:100E60000034014010B5040003D094F83D0010B1E7
:100E700007E0012010BD002084F83C00204600F06F
:100E80000DF8022084F83D00211D206800F0AAFA28
:100E9000012084F83D00002010BD000008B5006866
:100EA0000B49884212D10B48C16941F01001C16160
:100EB000C069002200F01000009011463620FFF7B4
:100EC000A9FBBDE808403620FFF798BB08BD00002D
:100ED00000100040001002400168CA6842F00102A0
:100EE000CA600068016841F001010160002070479C
:100EF000704770B50446006801694FF00005C943AA
:100F0000890715D4C168C943890711D4E91E016155
:100F100001202077206880698007204602D0FFF7F3
:100F2000E7FF04E000F0A7F8204600F0A5F82577D9
:100F300020680169C943490717D4C168C9434907F3
:100F400013D46FF0040101610220207720688069CA
:100F500010F4407F204602D0FFF7CAFF04E000F003
:100F60008AF8204600F088F8257720680169C9438F
:100F7000090716D4C168C943090712D46FF00801E4
:100F80000161042020772068C0698007204602D0D4
:100F9000FFF7AEFF04E000F06EF8204600F06CF8BA
:100FA000257720680169C943C90617D4C168C943B8
:100FB000C90613D46FF01001016108202077206862
:100FC000C06910F4407F204602D0FFF791FF04E093
:100FD00000F051F8204600F04FF8257720680169AD
:100FE000C943C90708D1C168C943C90704D1891ECB
:100FF0000161204600F041F820680169C9430906F3
:1010000009D4C168C943090605D46FF080010161A4
:101010002046FFF7F9FE20680169C943C90509D4D4
:10102000C168C943090605D46FF480710161204687
:10103000FFF7E9FE20680169C943490609D4C16880
:10104000C943490605D46FF040010161204600F014
:1010500015F820680169C94389060BD4C168C943E2
:10106000890607D46FF0200101612046BDE8704079
:10107000FFF7CBBE70BD7047704770477047FEE703
:10108000F0B589B00C460F49DDE9106591F800E034
:101090000021DDE90EC705910691CDE9003C0791DD
:1010A00008911346BEF1000F02972246014601D077
:1010B000012000E00020CDE9036500F0B3FB09B09A
:1010C000F0BD0000480000203EB50E480C49002449
:1010D00001604BF67F31C0E9011443F6972184612A
:1010E000C160FFF7BFFE00B1FEE700946946054806
:1010F0000294FFF78BFE002800D0FEE73EBD000003
:10110000001000407000002010B5FFF759F80F21C3
:1011100090FBF1F201FB12000C49401C11F8202059
:101120002D2A07D0FFF7F0FFBDE810404FF42F70D5
:10113000FFF704B9452201F82020C0B2002100F0D9
:1011400045FC052000F060FCEEE70000B000002048
:10115000FEE770470907090E002806DA00F00F00C5
:1011600000F1E02080F8141D704700F1E02080F8C5
:1011700000147047704770472DE9F047264E074628
:1011800000244FF02D0800BF06EB8400C1784529EC
:101190000AD180F80380E0B2032100F017FC02209E
:1011A00000F032FCFFF7B0FF641C122CECDBDFF820
:1011B0006C900025002406EB8500015D45290BD0CD
:1011C000641C042CF9DB6D1C102DF3DBBDE8F0472B
:1011D0004FF4FA70FFF7B2B800F8048020444521BC
:1011E0004170E1B2E8B200F0F1FB0DA000F09AFB13
:1011F000641CE1B2E8B200F0E9FB052000F004FC59
:101200004C46D9F8040004E0FFF77EFF6068401CFC
:101210006060B842F8DDD6E7B00000200000002092
:101220002000000010B50021194C2D23002004EBF4
:1012300081021354401C0428FBDB491C1229F5DBF6
:1012400000204C212154401C0328FBDB00205221AC
:101250002218401C82F844100328F9DB00204421A6
:1012600004EB8002401CD1701128F9DB6320E07090
:10127000432084F84700FFF747FF06484168491CB0
:1012800041604D2084F823004E2084F8270010BDD3
:10129000B00000200000002010B5FFF735F9BDE8D0
:1012A0001040FFF7ACBD30B58FB00225012004908F
:1012B00000951020059000244FF42010CDE908403F
:1012C00007956846FFF7B2FA00B1FEE70F20CDE9B7
:1012D0000A054FF48060CDE90C4001210AA80E9464
:1012E000FFF7CAF900B1FEE7FFF768FA4FF47A7129
:1012F000B0FBF1F0FFF76FFD0420FFF75FFD002268
:101300001146501EFFF786F90FB030BD1448016832
:1013100041F4700101601348016841F0010101606E
:101320004168114A114041600168104A1140016052
:10133000016821F480210160416821F4FE014160CF
:10134000C16A21F00F01C162016B094A11400163BA
:10135000002181600249C0038039086070470000A5
:1013600088ED00E0001002400CC07FF8FFFFF6FEA1
:10137000CCFC00FF10B51848FFF7BBFD174801680B
:10138000082901D100210160491C01601448092984
:1013900021D2DFE801F02005080B0E1114171A0006
:1013A0004FF4807113E04FF4007110E04FF480614E
:1013B0000DE04FF400610AE04FF4805107E04FF474
:1013C000005104E04FF4804101E04FF40041BDE8DA
:1013D0001040FFF789B810BD700000200000002009
:1013E000001000482DE9F0430268234B234D244EA2
:1013F000244C4FF08049984207D0484505D0A84278
:1014000003D0B04201D0A04203D122F070074A6855
:101410003A431D4FDFF874C0DFF8748098420DD056
:1014200048450BD0A84209D0B04207D0A04205D011
:10143000B84203D0604501D0404503D122F4407545
:10144000CA682A434D6922F080022A4302608A68F2
:10145000C2620A688262984207D0A04205D0B842B0
:1014600003D0604501D0404501D1096901630121E4
:101470004161BDE8F0830000002C01400004004001
:101480000008004000340140004001400044014099
:1014900000480140FEE700002DE9F05F00244FF412
:1014A0008076404D77004FF480694FF4006B4FF425
:1014B000FA784FF4967A0021052000F087FA3AA0D6
:1014C00000F030FA0221052000F080FA39A000F087
:1014D00029FA0321052000F079FA39A000F022FA58
:1014E00000F03EF931462846FEF7FEFF3946284611
:1014F000FEF7FAFF49462846FEF7F6FF594628460A
:10150000FEF7F2FF4FF480512846FEF7EDFF4FF44F
:1015100000512846FEF7E8FF4FF480412846FEF7C9
:10152000E3FF4FF400412846FEF7DEFF4046FEF79A
:1015300005FF00F0EBF95046FEF700FF641C052C98
:10154000B9DB00F00DF9002231462846FEF7D0FF46
:10155000002239462846FEF7CBFF0022494628469E
:10156000FEF7C6FF002259462846FEF7C1FF0022BB
:101570004FF480512846FEF7BBFF00224FF4005184
:101580002846FEF7B5FF00224FF480412846FEF7BB
:10159000AFFF2846BDE8F05F00224FF40041FEF7A0
:1015A000A7BF000000100048444541544820524164
:1015B0004345000040686F64615F6D737700000011
:1015C00040736F67616E64445652000002E008C8C1
:1015D000121F08C1002AFAD170477047002001E0AD
:1015E00001C1121F002AFBD17047000030B54B4CDF
:1015F00085B00D46012903D9A17841F00801A170F9
:1016000000F14003024665714021002000F0F2F92C
:10161000607828B1012D03D1A07840F00400A070BB
:1016200000F0AAF8032003900120019021783C48A3
:101630000029E2880188638941EA0201228942EA9D
:10164000030241EA0201428841EA0201828841EA3A
:10165000020101D0C08808E0C28811430289114309
:10166000428911438289C08911430143009169462F
:10167000E068FEF775FE3220FEF760FE0022E1888A
:10168000E068FEF735FF00226189E068FEF730FF71
:101690002189FF2903D00022E068FEF729FFA07806
:1016A000C10615D4032000F0B5F90520FEF746FE6B
:1016B000032000F0AFF90520FEF740FE032000F004
:1016C000A9F90120FEF73AFE022000F0A3F913E089
:1016D00040F0200000F02FF80520FEF72FFEA07844
:1016E00040F0200000F027F80120FEF727FEA07848
:1016F00040F0200000F01FF8A07840F0200000F03B
:101700001AF80420E07000F02BF800F00BF802202B
:101710002071062000F00FF805B030BD4800002011
:10172000F800002010B5012000F005F8BDE81040D9
:101730000220FEF703BE002100F026B970B50D4669
:1017400000F00700402141EAC000FFF7F4FF002449
:101750000121285D00F018F9641C082CF8DB70BD2D
:101760000449C87840F00400C87040F00800FFF752
:10177000E2BF000048000020234808B5C1682348A4
:10178000B1F1904F0BD0224A914210D1416941F4FE
:1017900080214161406900F48020009008BD4169CA
:1017A00041F400314161406900F40030F5E7194A25
:1017B000914207D1416941F400214161406900F43F
:1017C0000020EAE7144A914207D1416941F48011AF
:1017D0004161406900F48010DFE7104A914207D16F
:1017E000416941F400114161406900F40010D4E7FF
:1017F0000B4A9142D2D1416941F480014161406973
:1018000000F48000C9E700004800002000100240FA
:101810000004004800080048000C00480010004880
:10182000001400482DE9F05F0AAC94E8E05F0F4C2B
:10183000E28023816581E1600D490E804F80A1F82F
:101840000480A1F80690A1F808A0A1F80AB0A1F8B8
:101850000CC0A1F80EE008B1002000E01020A0703C
:10186000BDE8F05F02211020FFF7C0BE4800002055
:10187000F800002086B0FEF74FFEFFF714FD1E486B
:10188000416941F40011416140691C4D00F40010B0
:101890004FF47F440590002221462846FEF728FE9B
:1018A000009401240021CDE90141039169462846B5
:1018B000FEF756FDFFF708FCA3035A10511048101D
:1018C0008DE80F0043108210C1100D48FFF7D8FBC0
:1018D00004211420FFF78AFEFFF7DEFDFFF7A2FCCC
:1018E000FEF79CFC074804600748FFF7F5FA00BFC5
:1018F000FEF704FDFCE70000001002400010004865
:10190000000C004800000020700000200449C87846
:1019100020F00400C87040F00800FFF70CBF000082
:101920004800002070B500280FD00446FEF75AFC8E
:101930000546002606E000BF14F8010B012100F067
:1019400023F8761C6D1EF7D2304670BD10B50D4CD5
:1019500000226189E068FEF7CBFD0120FEF7EEFC76
:1019600001226189E068FEF7C3FD0120FEF7E6FC75
:1019700000226189E068FEF7BBFDBDE81040012050
:10198000FEF7DCBC4800002070B50F4C05460A4647
:10199000E188E068FEF7ACFD2189FF2903D0002231
:1019A000E068FEF7A5FDA078C00604D52846BDE88E
:1019B000704000F049B8280900F02CF82846BDE82E
:1019C000704000F027B8000048000020042900D330
:1019D0000321074A5279914201D3521ED1B2044ADF
:1019E0001032515C0844C0B240F08000FFF7A3BE43
:1019F0004800002010B5034C20706170A270E370A5
:101A000010BD00005800002010B50121FFF7BCFFF9
:101A1000012010BD2DE9F041094E0A4F0546002472
:101A200025FA04F000F0010236F81410F868FEF709
:101A30005FFD641C042CF3DBBDE8F041FFF786BFBB
:101A4000F8000020480000202DE9F041094E0A4F1F
:101A50000546002425FA04F000F0010236F81410BF
:101A6000F868FEF745FD641C082CF3DBBDE8F04187
:101A7000FFF76CBFF80000204800002002030405B7
:101A8000060708090A0B0C0D0E0F101001020304C3
:101A900005060708090A0B0C0D0E0F1000000000C8
:101AA000000000000102030406070809CC1A000820
:101AB0000000002070000000CC1500083C1B00084E
:101AC0007000002098040000DC15000800000000F1
:101AD000000000001818181818181818030303033A
:101AE000030303030000000000001F1F03030303A0
:101AF00003031F1F1818181818181F1F1B1B040E8C
:101B0000041F0E04131F1B18181B1F03191F1B0390
:101B1000031B1F180100000000000000000000006F
:101B200000000000000000000100000010000000A4
:0C1B30000000000000127A00000000001D
:040000050800018965
:00000001FF
