:020000040800F2
:10000000280700209D010008F3240008E9210008CA
:10001000F12400086D040008793100080000000098
:10002000000000000000000000000000172500088C
:100030006F0400080000000015250008A128000832
:10004000B7010008B7010008B7010008B7010008B0
:10005000B7010008B701000845050008B70100080E
:10006000B7010008B7010008B7010008B701000890
:10007000B7010008B7010008B7010008B701000880
:10008000B7010008B70100089D020008B701000889
:10009000B7010008B7010008B7010008B701000860
:1000A000B701000899290008B7010008B701000846
:1000B000B7010008B7010008B7010008B701000840
:1000C000B7010008B7010008B7010008B701000830
:1000D000B7010008B7010008B7010008B701000820
:1000E000B7010008B7010008B7010008B701000810
:1000F000B7010008B7010008B7010008B701000800
:10010000000000000000000000000000B70100082F
:10011000B7010008B70100084D2D00081530000890
:10012000B7010008B7010008B7010008B7010008CF
:10013000B7010008B701000800000000000000003F
:10014000B7010008B7010008B7010008000000006F
:10015000000000000000000000000000000000009F
:100160000000000000000000B7010008B70100080F
:10017000B7010008000000000000000000000000BF
:1001800000000000B7010008DFF80CD000F048F8CC
:1001900000480047ED3D000828070020064880473A
:1001A00006480047FEE7FEE7FEE7FEE7FEE7FEE75C
:1001B000FEE7FEE7FEE7FEE73129000889010008B7
:1001C0000649074A0868504343F239021044086060
:1001D0004008704701490860704700006001002036
:1001E0006D4EC641421C10F8011B0029FBD1801A3C
:1001F000704730B50B46014600202022012409E05B
:1002000021FA02F59D4205D303FA02F5491B04FACF
:1002100002F52844151EA2F10102F1DC30BD0000F8
:10022000064C074D06E0E06840F0010394E8070043
:1002300098471034AC42F6D3FFF7AAFF14400008E9
:100240003440000870B58C1810F8015B15F00703F6
:1002500001D110F8013B2A1106D110F8012B03E05F
:1002600010F8016B01F8016B5B1EF9D12B0705D467
:100270000023521E0DD401F8013BFAE710F8013BB0
:10028000CB1A921C03E013F8015B01F8015B521ECC
:10029000F9D5A142D8D3002070BD00000F4810B599
:1002A0004168491C4160032910D1002141600C487C
:1002B00000F0BCFBC0EBC00040003F2190FBF1F020
:1002C0000849401C0860084901200860044800F003
:1002D000ABFEBDE81040024800F0ACBBF4000020CB
:1002E00074010020300000203400002070B5044666
:1002F00000680022836813F00C0F50D0C3689B0184
:1003000005D5E369012B02D1A369012B22D0602915
:100310000CD020688268520706D58268920703D401
:10032000826842F0100282600C290ED02068826838
:10033000120706D58268920703D4826842F0200231
:100340008260602915D06C2911D0042501F042F893
:10035000064620E00C21134B02E09A4211D2521CB7
:100360000568ED436D06F8D440220260D1E70C2504
:10037000ECE70825EAE700BF01F02CF8801B0B280A
:1003800009D9606C40F010006064A06C40F001007E
:10039000A064012070BD206880682842ECD1002054
:1003A00070BD00000094090070B5044600688168C3
:1003B00001F00301012926D10168C90723D0816812
:1003C00001F00D01012910D1816841F00201816025
:1003D00021680320086000F0FDFF05460FE000BF24
:1003E00000F0F8FF401B022809D9606C40F01000B3
:1003F0006064A06C40F00100A064012070BD206822
:100400008068C007ECD1002070BD000070B50446C4
:100410000068816801F00301012902D10168C90760
:1004200020D18168104A11420DD1816841F001014B
:10043000816000F0CFFF05460FE000BF00F0CAFF6B
:10044000401B022809D9606C40F010006064A06C69
:1004500040F00100A064012070BD20680068C04326
:10046000C007EBD1002070BD3F000080FEE7704761
:100470002DE9F0413049002003F01CFC2E490120F9
:10048000083103F017FC2C490220103103F012FC54
:1004900029490320203103F00DFC2749042018319D
:1004A00003F008FC24490520283103F003FC22490D
:1004B0000620383103F0FEFB1F490720303103F0DE
:1004C000F9FB1E4F0025002407EB8506E1B2E8B2D8
:1004D00003F030FD305D4C2816D006DC2D280DD001
:1004E000432822D0442812D11BE04D281FD04E288B
:1004F0001FD0522806D0632809D114E010A003F0C1
:10050000C5FC04E0012000E0002003F031FD641C84
:10051000042CDBDB6D1C122DD5DBBDE8F04103F0B4
:10052000DBBB0220F1E70320EFE70420EDE7062024
:10053000EBE70720E9E700003C000020DC02002098
:1005400020000000054801210268012A01D1044A67
:1005500051610160012000F05FBE00002400002016
:10056000F400002010B50446FFF72AFE90FBF4F1DA
:1005700004FB110010BD70477047704770470000C2
:10058000F0B5002302684FF0A04C3D4C95B01F46DB
:10059000624501D100940DE0A24202D1CDF800C025
:1005A00008E0384D384EAA4201D1009602E0B2422E
:1005B00014D1009590F84050012D12D0012580F8FB
:1005C000405095686D0752D4009DAD686D074ED4BC
:1005D000624501D0A24206D12C4A05E0012015B0A7
:1005E000F0BD0220FBE72A4A0D6840F61F741DB3D8
:1005F0009568466B25F4604545EA46354E683543B7
:1006000095600568AE6806F00306012E02D12D68DC
:10061000ED0731D1009DAD6805F00305012D03D133
:10062000009D2D68ED0727D10D6889680D439168FD
:10063000A1430D4395601FE0916821F460419160F2
:1006400001688D6805F00305012D02D10968C9070D
:1006500012D10099896801F00301012903D10099A1
:100660000968C90708D19168A143916004E0416C11
:1006700041F020014164012380F840701846AEE744
:10068000000100500004005000050050000300501D
:1006900000070050F0B595B00024009490F8402079
:1006A0002546012A19D0012780F8407003689A680E
:1006B00052077CD44A681F26052A11D2D3F830C0CD
:1006C00002EB4202520096402CEA060C0E6896405D
:1006D0004CEA060CC3F830C035E0022015B0F0BD7E
:1006E0000A2A0FD2D3F834C0521F02EB4202520042
:1006F00096402CEA060C0E6896404CEA060CC3F8AD
:1007000034C020E00F2A0FD2D3F838C00A3A02EBE7
:100710004202520096402CEA060C0E6896404CEAC3
:10072000060CC3F838C00EE0D3F83CC00F3A02EB19
:100730004202520096402CEA060C0E6896404CEAA3
:10074000060CC3F83CC00268936813F00C0F4FF01E
:10075000070374D1D1F800E0BEF10A0F10D39669F7
:10076000AEF10A0E0EEB4E0C03FA0CFE26EA0E0654
:10077000D1F808E00EFA0CFE46EA0E0696610FE08C
:10078000D2F814C00EEB4E0603FA06FE2CEA0E0C4D
:10079000D1F808E00EFA06FE4CEA0E0CC2F814C0BE
:1007A00002684E69D2F80CC0CCF3C10C00E0FDE049
:1007B0004FEA4C0C06FA0CF6D1F810E0DFF848C20C
:1007C000BEF1010F42D0BEF1020F4DD0BEF1030FBA
:1007D00058D0BEF1040F63D0166E91F800C006F039
:1007E000F846B6EB8C6F03D1166E26F000461666FF
:1007F0000268566E91F800C006F0F846B6EB8C6FB2
:1008000003D1566E26F0004656660268966E91F841
:1008100000C006F0F846B6EB8C6F03D1966E26F05A
:10082000004696660268D66E91F800C006F0F8465B
:10083000B6EB8C6F03D1D66E26F00046D666026802
:10084000966806F00306012E3AD136E0D2F860E051
:100850000EEA0C0E91F800C046EA8C664EEA060ECF
:100860004EF000461666EAE7D2F864E00EEA0C0E97
:1008700091F800C046EA8C664EEA060E4EF000463D
:100880005666DCE7D2F868E00EEA0C0E91F800C07C
:1008900046EA8C664EEA060E4EF000469666CEE7B5
:1008A000D2F86CE00EEA0C0E91F800C046EA8C66B5
:1008B0004EEA060E4EF00046C0E71668F6077AD1FB
:1008C000CE68012E06D052F8B03F0E78B740BB4339
:1008D000136021E052F8B06F91F800C007FA0CF7EE
:1008E0003E4316600A680A2A0BD30668B769093ABC
:1008F00002EB420293409F438B6893401F43B761D2
:100900000AE007687E69521C02EB420293409E4354
:100910008B6893401E437E6103684FF0A0473B4EB7
:10092000BB4201D0B34201D1394A00E0394A0968DB
:10093000102904D0112907D012290AD03BE0D2F89F
:1009400008C04FEA0C2C08E0D2F808C04FEACC1CD3
:1009500003E0D2F808C04FEA4C2CBCF1000F2ADBB0
:10096000BB420DD0B34201D100970CE02A4EDFF814
:10097000ACC0B34202D1CDF800C004E0634501D160
:10098000009600E000959E6806F00306012E02D155
:100990001E68F6070AD1009E8EB1B66806F00306FF
:1009A000012E0CD1009E3668F60708D0416C41F04C
:1009B00020014164012480F8405020468EE6102931
:1009C00008D011291AD01229F5D1916841F480017B
:1009D0009160F0E7BB42EED1916841F40001916073
:1009E0000F49104A0968B1FBF2F101EB810149009E
:1009F00000E0491E00910029FBD1DCE7BB42DAD1BF
:100A0000916841F08071E3E700F0FF83000100503E
:100A10000003005000070050000400500005005083
:100A20005C01002040420F00704770470068006C76
:100A3000704700002DE9F041044600680168C34F8B
:100A4000C34DC44E49074FF0A04802D5416849073D
:100A500005D40168090761D5416809075ED5616C55
:100A6000C90603D4616C41F4007161644146884257
:100A700001D0B04202D1D1F8082300E03A6812F068
:100A80001F0F1BD0884201D0B04202D1D1F80823F9
:100A900000E03A6802F01F02052A0FD0884201D018
:100AA000B04202D1D1F8082300E03A6802F01F02F8
:100AB000092A03D0884201D0A84201D1C16803E0CD
:100AC000B04200D02946C968C26812F4406F1FD1F5
:100AD00089041DD4016809071AD5816849070FD414
:100AE000416821F00C014160606C20F4807060640A
:100AF000606CC0040CD4606C40F00100606407E0DE
:100B0000606C40F010006064A06C40F00100A064D4
:100B10002046FFF789FF21680C20086020680168E3
:100B2000890602D54168890605D4016849066ED553
:100B3000416849066BD5616C41F4005161644246DD
:100B4000904201D0B04202D1D2F8081300E03968D7
:100B500011F01F0F1CD0904201D0B04202D1D2F848
:100B6000081300E0396801F01F01052910D0414643
:100B7000884201D0B04202D1D1F8083300E03B688E
:100B800003F01F03092B03D0884201D0A84201D1F2
:100B9000C16803E0B04200D02946C968C36C13F0B5
:100BA000C00F07D08B0154D4C36813F4406F50D1E9
:100BB00089044ED4016849064BD51146884201D0BC
:100BC000B04202D1D1F8082300E03A6812F01F0FBA
:100BD0001BD0884201D0B04202D1D1F8082300E0F6
:100BE0003A6802F01F02062A0FD0884201D0B042B4
:100BF00002D1D1F8082300E03A6802F01F02072A68
:100C000003D0884201D0A84202D1C16804E026E0A6
:100C1000B04200D02946C96889021AD48168090700
:100C20000FD4416821F060014160606C20F4805075
:100C30006064606CC0050CD4606C40F001006064BE
:100C400007E0606C40F010006064A06C40F00100B0
:100C5000A0642046FFF78FFC2168602008602068B0
:100C6000016809060CD54068000609D5606C40F49F
:100C700080306064204600F095F92168802008608B
:100C800020680168C9050DD54068C0050AD5606CAB
:100C900040F4003060642046FFF76FFC21684FF499
:100CA000807008602068016889050DD5406880055E
:100CB0000AD5606C40F4802060642046FFF75EFC3B
:100CC00021684FF40070086020680168C90622D5C9
:100CD0004168C9061FD5A16B01290ED0404501D03E
:100CE000B04201D11C4901E0184908398A68D2068E
:100CF00028D0886800F4404050B1606C40F48060B7
:100D00006064A06C40F00200A0642046FFF78DFEF6
:100D100021681020086020680168490510D54168E5
:100D200049050DD5616C41F480416164A16C41F0CD
:100D30000801A1644FF4806101602046FFF71CFCAC
:100D4000BDE8F081C068C007D6E700000807005082
:100D5000000400500001005000030050F0B54FF0B7
:100D6000000695B0040037463546009605D0606C05
:100D7000C00648D4606C18B133E0012015B0F0BD56
:100D8000A5642565E56484F84050204600F00CF920
:100D900020688068C00024D42046FFF705FB064683
:100DA000606CC0061DD4E6B9606C20F4885040F039
:100DB000020060642068816821F0405181602068F1
:100DC000816841F0805181606D486E490068B0FBD8
:100DD000F1F000EB8000400000E0401E0090002891
:100DE000FBD120688168C90002D5806880000AD5DF
:100DF000606C20F0020040F010006064A06C40F0D5
:100E00000100A0640126606CC00675D4002E73D169
:100E10002068816849076FD4616C21F4807141F0CA
:100E2000020161644FF0A04E574B704501D09842CB
:100E300001D1564A00E0564ADFF858C1564970457C
:100E400001D100930EE0984202D1CDF800E009E014
:100E5000884202D1CDF800C004E0604501D1009184
:100E600000E00095836803F00303012B02D10068C2
:100E7000C00710D1009840B1806800F0030001283D
:100E800003D100980068C00705D19068636820F41A
:100E9000403018439060D4E902201043A26B012A2D
:100EA00002D04FF4805300E00023E26943EA42336A
:100EB0001843636A3843012B0AD1F2B1626C22F005
:100EC000020242F020026264A26C42F00102A264BB
:100ED000E26A012A21D023688B4201D0634518D1F0
:100EE0004FF430774FF4E071BA4213D04FF480736F
:100EF0009A420AD139460DE038E0228D274B03EBA8
:100F00004242024342F48030E2E78A4201D119466C
:100F100000E011460143206B084321688A6812F003
:100F20000C0F0AD1CA6844F202039A43CA60A1694D
:100F3000626B890341EA420108432268D168184B79
:100F400019400143D160206901282068016B21F01C
:100F50000F0102D1226A521E11430163A564606C25
:100F600020F0020040F00100606406E0606C20F0B8
:100F7000020040F01000606401263046FEE60000EA
:100F80005C01002040420F000001005000030050AF
:100F90000007005000050050000400500000FEFF54
:100FA00007C0F0FF7047000010B5036800211B4820
:100FB000032286B0B3F1A04F15D0194CA34210D133
:100FC000436943F000534361406900F000500590CD
:100FD0004FF480500090CDE901216946114800F09E
:100FE00027F906B010BD436943F08053436140695F
:100FF00000F0805005900C200090CDE90121694659
:101000004FF0904000F014F900220421122000F06B
:101010006DFA122000F05EFAE3E7000000100240D3
:1010200000050050000400482DE9F0410446006826
:101030008068400770D494F8400001280CD001204B
:1010400084F840002046FFF7E1F903004FF0000666
:1010500005D084F840609EE00220BDE8F081606C1D
:1010600040F60161884340F48070606420684FF06E
:10107000A0414A4A4A4D884201D0904202D1D1F85B
:10108000087300E02F6817F01F0F464F03D0884207
:1010900001D0B8420BD1D4F844C02CF4801CC4F861
:1010A00044C0D0F80CC05FEA8C1C14D41BE0D4F808
:1010B00044C04CF4801CC4F844C0904202D1D1F822
:1010C0000CC005E0DFF8DCC00CF10C0CDCF800C053
:1010D0001CF0007F07D0D4F844C02CF4005C4CF422
:1010E000805CC4F844C0D4F844C05FEACC4C06D558
:1010F000D4F848C02CF0060CC4F848C000E0A66440
:1011000084F840601C2606606069082820684668EC
:1011100003D046F00C0607E03CE026F004064660EB
:101120002068466846F008064660A06B012804D196
:101130002068466826F0100646602068884201D084
:10114000904202D1D1F8084300E02C6814F01F0F40
:101150001BD0884201D0904202D1D1F8084300E070
:101160002C6804F01F04052C0FD0884201D0904257
:1011700002D1D1F8082300E02A6802F01F02092AF0
:1011800003D0884201D0B84205D1816841F0040102
:10119000816000E0022318465FE700000001005074
:1011A000080700500004005010B5044690F84000B5
:1011B000012808D0012084F840006C212046FFF768
:1011C00095F810B110E0022010BD2068416821F0B0
:1011D0001C0141602046FFF7E7F828B9616C21F453
:1011E000885141F001016164002184F8401010BD74
:1011F00070B5044600F0EEF80546601C02D00448C5
:101200000078044400F0E6F8401BA042FAD370BD19
:101210005001002070470000044910B50A680242DE
:1012200002D00860FFF7F6FF10BD00001404014073
:101230002DE9F84FDFF864B100234FF0010C4FF0B7
:10124000030A4FF00F090BF1040EA0E00CFA03F6AD
:10125000324072D04C68022C01D0122C0ED1DC0826
:1012600000EB8408D8F820405D07EF0E09FA07F577
:10127000AC430D69BD402543C8F8205007685D00A8
:1012800091F804800AFA05F408F00308A74308FA65
:1012900005F848EA0708C0F800804F68012F05D01C
:1012A000022F03D0112F01D0122F11D18768D1F84E
:1012B0000C80A74308FA05F848EA0708C0F8088038
:1012C0004768B7430E79C6F300169E403E4346601A
:1012D000C668A6438C68AC403443C4604C68E400E4
:1012E00054D52F4CA56945F00105A561A46923F0EB
:1012F000030504F0010400942A4C2E19B4689D07DC
:101300002F0F09FA07F5AC43B0F1904F04D0264DEA
:10131000A84203D1012512E0002510E0234DA84288
:1013200001D102250BE0224DA84201D1032506E0A0
:10133000204DA84202D1042501E027E00525BD404B
:101340002543B560DBF800405D464E689443F603E4
:1013500000D514432C60DEF8004075464E68944377
:10136000B60300D514432C600C4D08352C684E682C
:101370009443F60200D514432C60084D0C352C68BC
:101380004E689443B60200D514432C605B1C0A6877
:1013900032FA03F47FF45AAFBDE8F88F000401403D
:1013A000001002400000014000040048000800480E
:1013B000000C0048001000480069084000D00120DF
:1013C000704742694A40426170470AB18161704783
:1013D000816270470148806870470000500100201A
:1013E00002488168027811448160704750010020F2
:1013F000074810B5016841F010010160032000F0BA
:1014000095F8002000F006F800F024F8002010BD48
:101410000020024070B50D4D04464FF47A712878D3
:10142000B1FBF0F00A490968B1FBF0F000F04BFDA8
:1014300048B9102C07D200222146501E00F056F861
:1014400000206C6070BD012070BD000050010020C4
:101450005C0100201E4808B5816941F001018161ED
:10146000816901F001010091C16941F08051C161C0
:10147000C06900F080500090042000F057F800226E
:1014800011466FF00B0000F031F8002211466FF0AA
:101490000A0000F02BF8002211466FF0090000F05E
:1014A00025F800221146501F00F020F800221146B6
:1014B000101F00F01BF800221146901E00F016F8D5
:1014C0000022BDE808401146501E00F00FB8000091
:1014D0000010024000F01F020121914040098000ED
:1014E00000F1E020C0F8001170470000F0B40E4B8E
:1014F0001B680C46C3F30223C3F10705042D00D972
:101500000425191D072901D2002300E0DB1E012656
:1015100006FA05F1491E214099409E40761E16406C
:101520003143F0BC00F0E6BF0CED00E0064900F0EE
:10153000070208684FF6FF03184040EA0220034AFA
:1015400010430860704700000CED00E00000FA0551
:101550002DE9F84F04460068804DC0036FD5E86957
:101560000026C00008D4E86940F08050E861E869CE
:10157000012600F08050009079480168C90512D416
:101580000168804641F480710160FFF723FF074640
:1015900005E000BFFFF71EFFC01B642835D8D8F850
:1015A0000000C005F6D5286A10F4407053D0A18819
:1015B00001F4407181424ED0286A4FF4803191FA93
:1015C000A1F2B2FA82F29700664A4FF0010817447E
:1015D00020F44070C7F8008491FAA1F1B1FA81F1CA
:1015E00002EB81010023C1F800342862C00732D029
:1015F000FFF7F0FE074641F2883A4FF0020907E094
:10160000FFF7E8FEC11B514502D90320BDE8F88F62
:1016100099FAA9F1B1FA81F141F040014846B8EBDD
:10162000511F01D129680CE090FAA0F1B1FA81F1C3
:1016300041F04001B0EB511F02D1296A01E015E0F1
:10164000696A99FAA9F0B0FA80F000F01F0008FA70
:1016500000F21142D4D0286A616820F44070084337
:1016600028621EB1E86920F08050E8612078C00748
:1016700005D0286BA16820F0030008432863207878
:10168000800705D5286BE16820F4403008432863C3
:101690002078400705D5286B216920F440200843B5
:1016A00028632078800605D5286BE16920F01000BA
:1016B000084328632068800305D56868A16B20F47F
:1016C0008000084368602078400605D5286B216AB1
:1016D00020F02000084328632078000705D5286BF8
:1016E000616920F44010084328632078C00605D5BE
:1016F000286BA16920F440000843286320888005F6
:1017000005D56868E16A20F4000008436860207825
:10171000000605D5E86A616A20F4F8700843E862BB
:101720002088C00505D5E86AA16A20F478500843EE
:10173000E8622088C00405D5286B216B20F48070F6
:10174000084328632088800405D5286B616B20F44A
:10175000007008432863002058E700000010024092
:1017600000700040000042422DE9F0470F4605009E
:1017700069D04A4E306800F00700B84209D230689C
:1017800020F0070038433060306800F00700B842AE
:1017900059D12878424C800705D56068A96820F0A7
:1017A000F000084360602878C0073DD069680120D8
:1017B00001290DD0022923D05FF0020393FAA3F28E
:1017C000B2FA82F242F02002520904D0226803E009
:1017D0004FF40033F2E7626A93FAA3F3B3FA83F3A8
:1017E00003F01F03984002422DD0606820F00300F0
:1017F00008436060FFF7EEFD804641F288390CE057
:101800004FF00073DAE700BFFFF7E4FDA0EB08013B
:10181000494502D90320BDE8F0876068696800F097
:101820000C00B0EB810FEFD1306800F00700B84238
:101830000BD9306820F0070038433060306800F082
:101840000700B84201D00120E5E72878400705D518
:101850006068E96820F4E060084360602878000769
:1018600006D56068296920F4605040EAC1006060D4
:1018700000F022F86168F02292FAA2F201F0F00181
:10188000B2FA82F2D140074A515CC840064908606A
:101890000020FFF7BFFD0020BDE700000020024050
:1018A00000100240044000085C010020014800686C
:1018B000704700005C010020144B10B55A681448B2
:1018C00002F00C0104291DD008291BD14FF470141B
:1018D00094FAA4F402F47011B4FA84F4E1400D4CCB
:1018E000DB6A615C0F2494FAA4F403F00F03B4FAEA
:1018F00084F4E340074C1034D203E35C03D5B0FB1F
:10190000F3F0484310BD0448484310BD00100240A6
:1019100000127A00E43F000800093D002DE9F84F6D
:10192000040071D02078FB4DC0074FF0010625D090
:1019300068687704C0F38100012807D06868C0F3A5
:10194000810002281BD16868C00318D597FAA7F058
:10195000B0FA80F040F02000400901D0286800E093
:10196000686A97FAA7F1B1FA81F101F01F0106FA4E
:1019700001F1084265D060680028D2D061E060685B
:10198000B0F5803F0BD010B1B0F5A02F17D028686C
:1019900020F480302860286820F4802002E0286845
:1019A00040F480302860E86AA16820F00F00084306
:1019B000E862606820B3FFF70DFD80460AE0286802
:1019C00040F480202860EAE7FFF704FDA0EB080060
:1019D000642872D897FAA7F0B0FA80F040F020009F
:1019E000400901D0286800E0686A97FAA7F1B1FAC7
:1019F00081F101F01F0106FA01F10842E4D020E074
:101A0000FFF7E8FC804607E0C7E000BFFFF7E2FC15
:101A1000A0EB08006428DCD897FAA7F0B0FA80F0B1
:101A200040F02000400901D0286800E0686A97FA79
:101A3000A7F1B1FA81F101F01F0106FA01F10842A4
:101A4000E4D12078DFF8D08280074FF0000A4FF011
:101A5000020759D568684FF0F80B10F00C0F07D04B
:101A60006868C0F3810002281BD16868C00318D4DD
:101A700097FAA7F0B0FA80F040F02000400901D0BA
:101A8000286800E0686A97FAA7F1B1FA81F101F0DD
:101A90001F0106FA01F108422BD0206901287CD1F0
:101AA00027E0206988B396FAA6F0B0FA80F048F8EB
:101AB0002060FFF78FFC814606E055E1FFF78AFCC6
:101AC000A0EB0900022884D897FAA7F0B0FA80F0BA
:101AD00040F02000400901D0286800E0686A97FAC9
:101AE000A7F1B1FA81F101F01F0106FA01F10842F4
:101AF000E4D028689BFAABF26169B2FA82F220F076
:101B0000F80091400843286025E0FFE796FAA6F127
:101B1000B1FA81F148F821A0FFF75CFC814605E0AD
:101B2000FFF758FCA0EB09000228CCD897FAA7F0E1
:101B3000B0FA80F040F02000400901D0286800E0B1
:101B4000686A97FAA7F1B1FA81F101F01F0106FA6C
:101B500001F10842E4D1207800076AD5A069A0B35A
:101B600096FAA6F0B0FA80F008EB8000C0F8806426
:101B7000FFF730FC814605E0FFF72CFCA0EB0900E5
:101B80000228A0D897FAA7F0B0FA80F040F06000E1
:101B9000B6EB501F02D128680CE077E197FAA7F066
:101BA000B0FA80F040F06000B7EB501F01D1286A16
:101BB00000E0686A97FAA7F1B1FA81F101F01F011C
:101BC00006FA01F21042D7D033E0FFE796FAA6F00A
:101BD000B0FA80F008EB8000C0F880A4FFF7FAFBB1
:101BE000814605E0FFF7F6FBA0EB090002289CD830
:101BF00097FAA7F0B0FA80F040F06000B6EB501F03
:101C000001D128680BE097FAA7F0B0FA80F040F015
:101C10006000B7EB501F01D1286A00E0686A97FAAC
:101C2000A7F1B1FA81F101F01F0106FA01F21042A9
:101C3000D8D12078400774D5E8694FF00009C0007A
:101C400009D4E86940F08050E861E8694FF0010983
:101C500000F08050009031480168C90512D4016835
:101C600041F480710160FFF7B5FB834606E000BFD9
:101C7000FFF7B0FBA0EB0B00642875D8274800687D
:101C8000C005F5D5E06801280AD008B1052811D0B3
:101C9000286A20F001002862286A20F0040002E08F
:101CA000286A40F001002862E068C8B3FFF792FBA1
:101CB00083460DE0286A40F004002862F0E700BF88
:101CC000FFF788FBA0EB0B0141F2883081424BD833
:101CD00097FAA7F0B0FA80F040F04000B6EB501F42
:101CE00001D128680BE097FAA7F0B0FA80F040F035
:101CF0004000B7EB501F01D1286A00E0686A97FAEC
:101D0000A7F1B1FA81F101F01F0106FA01F21042C8
:101D1000D6D035E000100240000042420070004082
:101D200000E034E0FFF756FB834607E0FFF752FB85
:101D3000A0EB0B0141F28830814215D897FAA7F049
:101D4000B0FA80F040F04000B6EB501F01D1286897
:101D50000CE097FAA7F0B0FA80F040F04000B7EB43
:101D6000501F02D1286A01E083E0686A97FAA7F160
:101D7000B1FA81F101F01F0106FA01F21042D5D14A
:101D8000B9F1000F03D0E86920F08050E861E06904
:101D900080B36968C1F38101022977D04FF0807167
:101DA0004F00022809D091FAA1F0B0FA80F048F86B
:101DB00020A0FFF70FFB04465EE050468A4691FAEA
:101DC000A1F1B1FA81F1C14648F82100FFF702FB09
:101DD000804605E0FFF7FEFAA0EB0800022848D88D
:101DE00097FAA7F0B0FA80F040F02000400902D046
:101DF000286801E056E0686A97FAA7F1B1FA81F124
:101E000001F01F0106FA01F10842E3D1D4E90810FC
:101E10000843696821F47411084368609AFAAAF0CB
:101E2000B0FA80F049F82060FFF7D4FA044604E0E5
:101E3000FFF7D0FA001B02281BD897FAA7F0B0FAD8
:101E400080F040F02000400901D0286800E0686A76
:101E500097FAA7F1B1FA81F101F01F0106FA01F139
:101E60000842E5D01EE000BFFFF7B4FA001B0228CD
:101E700002D90320BDE8F88F97FAA7F0B0FA80F0F6
:101E800040F02000400902D0286801E00CE0686AB8
:101E900097FAA7F1B1FA81F101F01F0106FA01F1F9
:101EA0000842E1D10020E5E70120E3E74FF0E0211F
:101EB0000428086903D020F004000861704740F04E
:101EC0000400FAE7704710B5401EB0F1807F01D3DF
:101ED000012010BD4FF0E02460610F21601700F079
:101EE00009FB0020A06107202061002010BD10B573
:101EF000FFF7E8FF10BD70477047704730B590F8A6
:101F00003C20012A1FD0012280F83C20026853683F
:101F100094680E4DAA4202D00D4DAA4203D123F47B
:101F200070054B682B4323F070050B6889682B43C1
:101F300024F080042143536002689160002180F8FE
:101F40003C10084630BD022030BD0000002C01408E
:101F50000034014010B5040003D094F83D0010B1E6
:101F600007E0012010BD002084F83C00204600F06E
:101F70000DF8022084F83D00211D206801F0A4F82E
:101F8000012084F83D00002010BD000008B51E4A65
:101F900001681E4891420ED1C16941F01001C16132
:101FA000C069002200F01000009002213620FFF7E7
:101FB0009DFA362022E0164A91420ED1C16941F0C5
:101FC0002001C161C069002200F0200000900121C1
:101FD0003720FFF78BFA372010E00E4A914211D1DB
:101FE000816941F4003181618069002200F4003090
:101FF000009003211920FFF779FA1920BDE8084065
:10200000FFF768BA08BD0000001000400010024051
:1020100000140040004401400168CA6842F0010217
:10202000CA600068016841F001010160002070474A
:102030000168CA6822F00102CA600068016A41F2C0
:102040001112114207D1016A9210114203D10168A5
:1020500021F00101016000207047704770B504460F
:10206000006801694FF00005C943890715D4C168AC
:10207000C943890711D4E91E016101202077206836
:1020800080698007204602D0FFF7E7FF04E000F0F8
:10209000A7F8204600F0A5F8257720680169C94314
:1020A000490717D4C168C943490713D46FF0040125
:1020B0000161022020772068806910F4407F20466B
:1020C00002D0FFF7CAFF04E000F08AF8204600F0D3
:1020D00088F8257720680169C943090716D4C168C3
:1020E000C943090712D46FF0080101610420207769
:1020F0002068C0698007204602D0FFF7AEFF04E0E9
:1021000000F06EF8204600F06CF825772068016931
:10211000C943C90617D4C168C943C90613D46FF0AF
:1021200010010161082020772068C06910F4407F09
:10213000204602D0FFF791FF04E000F051F820465E
:1021400000F04FF8257720680169C943C90708D115
:10215000C168C943C90704D1891E0161204600F046
:1021600041F820680169C943090609D4C168C94317
:10217000090605D46FF0800101612046FFF7BCFE1F
:1021800020680169C943C90509D4C168C943090662
:1021900005D46FF4807101612046FFF7ACFE206822
:1021A0000169C943490609D4C168C943490605D430
:1021B0006FF040010161204600F015F820680169C8
:1021C000C94389060BD4C168C943890607D46FF097
:1021D000200101612046BDE87040FFF78EBE70BD52
:1021E0007047704770477047FEE70000F0B589B050
:1021F0000C460F49DDE9106591F800E00021DDE9AA
:102200000EC705910691CDE9003C07910891134650
:10221000BEF1000F02972246014601D0012000E0E6
:102220000020CDE9036501F0B9FD09B0F0BD000063
:102230000000002070B518488AB04FF0A04100247B
:10224000C0E900140461C46101254462C0E90B5473
:1022500018210562C0E9021404264463C0E905643C
:102260008463FEF77BFD00B1FEE706A90A480694E9
:10227000FEF786F900B1FEE70720CDE902040594D8
:10228000CDE90065049469460348FEF703FA002887
:1022900000D0FEE70AB070BD7401002030B51548CB
:1022A00087B013490024C0E9001484600461C4614C
:1022B00001254462C0E90B54C460056204214463F3
:1022C000C0E905148463FEF749FD00B1FEE7032071
:1022D00000900394CDE9015404946946054805949F
:1022E000FEF7D8F9002800D0FEE707B030BD0000A7
:1022F00000050050C80100202DE9F04F454887B087
:10230000416941F400114161416901F400110591F5
:10231000416941F400214161416901F400210591C5
:10232000416941F480014161416901F480010591F5
:10233000416941F400314161416901F40031059185
:10234000416941F480214161416901F48021059195
:10235000416941F4801141614069DFF8BC8000F4BB
:1023600080104FF67F740590002221464046FFF70B
:102370002CF8DFF8A8904EF20F06002231464846AE
:10238000FFF723F843F6F0474FF0904A0022394612
:102390005046FFF71AF8DFF888B000220F215846A0
:1023A000FFF713F80125CDE90045002402946946A2
:1023B00040460394FEF73CFF0096CDE90154694680
:1023C00048460394FEF734FF16486946CDE90050AD
:1023D000022002905046FEF72BFF0097CDE90154F2
:1023E000694650460394FEF723FF0F200090CDE985
:1023F0000154694658460394FEF71AFF002211461D
:102400000620FFF773F80620FFF764F807B0BDE871
:10241000F08F000000100240001000480008004843
:10242000000C0048000011103EB50E480C49002475
:10243000016048F69F41C0E9011440F2CF71846108
:10244000C160FFF787FD00B1FEE7009469460548CB
:102450000294FFF753FD002800D0FEE73EBD0000C8
:10246000001000401C0200203EB50E480C4900241C
:10247000016043F2D301C0E9011440F2CF2184612D
:10248000C160FFF767FD00B1FEE7009469460548AB
:102490000294FFF733FD002800D0FEE73EBD0000A8
:1024A000001400405C02002010B5FDF789FE0F21EA
:1024B00090FBF1F201FB12000C49401C11F82020A6
:1024C0002D2A07D0FFF7F0FFBDE810404FF4FA7057
:1024D000FEF78EBE452201F82020C0B2002101F097
:1024E00029FD052001F044FDEEE70000DC0200209C
:1024F000FEE770470907090E002806DA00F00F0012
:1025000000F1E02080F8141D704700F1E02080F811
:1025100000147047704770472DE9F84FB94E0024FA
:102520004FF02D0806EB8400C178452908D180F8CA
:102530000380E0B2032101F0FDFC022001F018FD50
:10254000641C122CEEDBB04D4FF04E0B6869012875
:102550000DD11027032406EB8700015D452907D024
:10256000641EFAD57F1E002FF4DC00206861D3E0E2
:1025700000EB040900F8048099F801004D2801D00F
:102580004E2843D1601CC1B2F8B201F0D3FC022046
:1025900001F0EEFCA01CC1B2F8B201F0CBFC0220AD
:1025A00001F0E6FCE1B2F8B201F0C4FC022001F057
:1025B000DFFC686A6860E8680321401EE86012205A
:1025C00001F0B8FC91A16846EA6801F075F8684628
:1025D00001F05CFCE86800287EDD4FF0000A4D2029
:1025E000C5F818A086F8230086F827B00321082034
:1025F00001F0A0FC062001F0BBFC0321092001F042
:1026000099FC072001F0B4FCC5F814A0452189F815
:102610000110E1B2F8B201F08DFC7DA001F036FCB2
:10262000641CE1B2F8B201F085FC052001F0A0FCC9
:1026300098E7012406EB8400C0784D2869D1E86949
:10264000844261DCCFE000BF06EB84074FF04D0A07
:1026500087F8078087F803B007F801ACE0B20321E0
:1026600001F068FC072001F083FCA4F1010909F0E6
:10267000FF00032101F05EFC062001F079FC601CE4
:10268000C0B2032101F056FC022001F071FC17F8E2
:10269000010C452802D0F878452834D109F0FF0014
:1026A000032101F047FC022001F062FCE0B20321AB
:1026B00001F040FC022001F05BFC686A6860E86899
:1026C0000321401EE860122001F034FC287B01F059
:1026D0004FFCE868002800E07DE07CDD0027AF616A
:1026E00086F823A086F827B00321082001F022FCF9
:1026F000062001F03DFC0321092001F01BFC07200E
:1027000001F036FC6F61641EE86984429CDC0020A5
:102710002862641C122C8DDB286A012889D00120D4
:10272000BDE8F88F06EB84074D2087F80380F87129
:1027300004F1020A87F80BB00AF0FF00032101F050
:10274000F9FB072001F014FC04F1010909F0FF0076
:10275000032101F0EFFB062001F00AFCE0B20321A7
:1027600001F0E8FB022001F003FCF879452802D0D3
:10277000F87A452836D109F0FF00032101F0DAFB91
:10278000022001F0F5FB0AF0FF00032101F0D2FB6B
:10279000022001F0EDFB686A6860E8680321401ED2
:1027A000E860122001F0C6FB287B01F0E1FBE8683D
:1027B00000281CDD00274D20AF6186F8230086F835
:1027C00027B00321082001F0B5FB062001F0D0FB63
:1027D0000321092000E00AE001F0ACFB072001F032
:1027E000C7FB6F61641CE86984429BDB8FE701F0E3
:1027F000D3F80121042001F09DFB06A001F046FB67
:1028000000208DE7DC020020140000202564000079
:102810002000000047414D45204F56455200000022
:1028200010B5002216492D24002001EB82031C5410
:10283000401C0428FBDB521C122AF5DB00204C2232
:102840000A54401C0328FBDB002052220B18401CBA
:1028500083F844200328F9DB0020442201EB8003A5
:10286000401CDA701128F9DB6320C870432081F81E
:1028700047004D2081F823004E2081F8270010BD2D
:10288000DC0200200548816843680A46491C514320
:10289000426AD21A514301607047000014000020C0
:1028A00010B5FEF79DFDBDE81040FFF720BB30B529
:1028B0009FB001210804CDE90010002402940225F4
:1028C0000491CDE907504FF4E01009906846FFF7F6
:1028D00025F800B1FEE70F20CDE919054FF480601F
:1028E000CDE91B40022119A81D94FEF73DFF00B160
:1028F000FEE74FF4C0700A904FF4807013904001CF
:1029000014900AA8FEF724FE00B1FEE7FEF7CEFF02
:102910004FF47A71B0FBF1F0FFF7D5FA0420FFF71E
:10292000C5FA00221146501EFEF7E0FD1FB030BD73
:102930001448016841F4700101601348016841F0D6
:10294000010101604168114A114041600168104A6B
:1029500011400160016821F480210160416821F487
:10296000FE014160C16A21F00F01C162016B094A99
:1029700011400163002181600249C0038039086071
:102980007047000088ED00E0001002400CC07FF8A6
:10299000FFFFF6FECCFC00FF70B5E848FFF75EFBDA
:1029A000E74DE848E84E2A6A4FF09044521C2A62EC
:1029B00001680A2091FBF0F300FB131391FBF0F187
:1029C0006B6291FBF0F300FB131391FBF0F1AB6230
:1029D00091FBF0F300FB131391FBF0F0C5E90B3012
:1029E000012A65D111463046FEF7EFFC0022022194
:1029F0003046FEF7EAFC002204213046FEF7E5FCF3
:102A0000002208213046FEF7E0FC686A0A284FD20F
:102A1000DFE800F00507181A21232A2C383A002293
:102A200000E0012210212046FEF7CFFC00222021E9
:102A30002046FEF7CAFC002240212046FEF7C5FCD6
:102A4000002231E0002200E0012210212046FEF7A2
:102A5000BCFC0122EBE7002200E00122102120460D
:102A6000FEF7B3FC002207E0002200E00122102163
:102A70002046FEF7AAFC012220212046FEF7A5FCF5
:102A80000122D9E7002200E0012210212046FEF7B2
:102A90009CFC002220212046FEF797FC00224021CA
:102AA0002046FEF792FC012280212046FEF78DFC95
:102AB000286A02287ED1002201213046FEF785FCDB
:102AC000012202213046FEF780FC0022042130461C
:102AD000FEF77BFC002208213046FEF776FCA86A50
:102AE0000A284FD2DFE800F00507181A21232A2C04
:102AF000383A002200E0012210212046FEF765FC52
:102B0000002220212046FEF760FC002240212046C2
:102B1000FEF75BFC002231E0002200E001221021E0
:102B20002046FEF752FC0122EBE7002200E00122E2
:102B300010212046FEF749FC002207E0002200E0B9
:102B4000012210212046FEF740FC012220212046D0
:102B5000FEF73BFC0122D9E7002200E00122102110
:102B60002046FEF732FC002220212046FEF72DFCF5
:102B7000002240212046FEF728FC01228021204629
:102B8000FEF723FC286A022868D100220121304682
:102B9000FEF71BFC002202213046FEF716FC012244
:102BA00004213046FEF711FC002208213046FEF7D2
:102BB0000CFC00E052E0E86A0A284FD2DFE800F09F
:102BC0000507181A21232A2C383A002200E0012296
:102BD00010212046FEF7F9FB002220212046FEF7B7
:102BE000F4FB002240212046FEF7EFFB002231E0FB
:102BF000002200E0012210212046FEF7E6FB012220
:102C0000EBE7002200E0012210212046FEF7DDFB69
:102C1000002207E0002200E0012210212046FEF7FA
:102C2000D4FB012220212046FEF7CFFB0122D9E769
:102C3000002200E0012210212046FEF7C6FB002200
:102C400020212046FEF7C1FB002240212046FEF74E
:102C5000BCFB012280212046FEF7B7FB286A03282F
:102C60006BD1002028620246E86101213046FEF760
:102C7000ACFB002202213046FEF7A7FB0022042114
:102C80003046FEF7A2FB012208213046FEF79DFBED
:102C9000286B0A2851D2DFE800F00507181A212313
:102CA0002A2C383A002200E0012210212046FEF7AB
:102CB0008CFB002220212046FEF787FB00224021CA
:102CC0002046FEF782FB002231E0002200E00122D4
:102CD00010212046FEF779FB0122EBE7002200E0FD
:102CE000012210212046FEF770FB002207E000229F
:102CF00000E0012210212046FEF767FB012220217F
:102D00002046FEF762FB0122D9E7002200E0012203
:102D100010212046FEF759FB002220212046FEF715
:102D200054FB002240212046FEF74FFB01222046A3
:102D3000BDE870408021FEF748BB70BD9C020020BA
:102D4000F400002038000020000800482DE9F05F62
:102D5000A848DFF8A8924FF000080168491C0160FC
:102D6000A5480121C161D9F80020521CC9F80020F2
:102D70008168491C8160052906D1C0F80880C168B6
:102D80000A2901DA491CC160C1689D48DFF874A2B4
:102D90004FF4005B0B290FD2DFE801F00E06091794
:102DA0001A1D202326292C000122114601E00122B0
:102DB00002215046FEF709FB934D8F4C4FF0FF3632
:102DC00028683434012818D028E001220421F0E7D3
:102DD00001220821EDE701221021EAE7012220214A
:102DE000E7E701224021E4E701225946E2E7012218
:102DF0009103DFE70122D103DCE7002044F82060E3
:102E0000401C0A28FADB002705E00A20FDF7AAFB90
:102E100044F827007F1C28688742F6DD7B48FFF7CF
:102E20001DF9D9F800004F460F2873D128680828EB
:102E300004D177490220C5F8008008602868401C4A
:102E4000286009281DD2DFE800F0C6051D354D6653
:102E50007F97AF004FF480715046FEF7B2FA002022
:102E600044F82060401C0A28FADB002605E00A200E
:102E7000FDF778FB44F82600761C2868401C864243
:102E8000F5DDA8E04FF400715046FEF79AFA0020F5
:102E900044F82060401C0A28FADB002605E00A20DE
:102EA000FDF760FB44F82600761C2868401C86422B
:102EB000F5DD90E04FF480615046FEF782FA002085
:102EC00044F82060401C0A28FADB002605E00A20AE
:102ED000FDF748FB44F82600761C2868401C864213
:102EE000F5DD78E04FF400615046FEF76AFA002005
:102EF00044F82060401C0A28FADB002605E00A207E
:102F0000FDF730FB44F82600761C2868401C8642FA
:102F1000F5DD60E061E04FF480515046FEF751FA74
:102F20005FF0000044F82060401C0A28FADB00260D
:102F300005E00C20FDF716FB44F82600761C2868F7
:102F4000401C8642F5DD46E059465046FEF739FA08
:102F50005FF0000044F82060401C0A28FADB0026DD
:102F600005E00C20FDF7FEFA44F82600761C2868E0
:102F7000401C8642F5DD2EE04FF480415046FEF7BE
:102F800020FA002044F82060401C0A28FADB0026C2
:102F900005E00E20FDF7E6FA44F82600761C2868C6
:102FA000401C8642F5DD16E04FF400415046FEF726
:102FB00008FA002044F82060401C0A28FADB0026AA
:102FC00005E00E20FDF7CEFA44F82600761C2868AE
:102FD000401C8642F5DDC7F800800025396854F8AA
:102FE0002500884201D1FFF75FFA6D1C0A2DF5DB41
:102FF000BDE8F09F38000020F40000202C000020E5
:1030000000080048001000481C0000201C0200209E
:103010002400002070B5284C606950B14FF09045F5
:1030200001212846FEF7C8F918B12069401C20612B
:10303000F6E720690021082806DDA069401CA06190
:10304000E068401EC4E9030120681C4A401C20605F
:10305000156801221A4B092D29D2DFE805F0280551
:10306000090D1115191D2100A569C5F10C051AE0FE
:10307000A569C5F10B0516E0A569C5F10A0512E0C1
:10308000A569C5F109050EE0A569C5F108050AE0C5
:10309000A569C5F1070506E0A569C5F1060502E0C9
:1030A000A569C5F10505854201D11A602160BDE819
:1030B00070400448FEF7D2BFF40000201C0000203E
:1030C000280000205C0200202DE9F0430268234B19
:1030D000234D244E244C4FF08049984207D0484558
:1030E00005D0A84203D0B04201D0A04203D122F0C3
:1030F00070074A683A431D4FDFF874C0DFF87480E8
:1031000098420DD048450BD0A84209D0B04207D014
:10311000A04205D0B84203D0604501D0404503D15C
:1031200022F44075CA682A434D6922F080022A437E
:1031300002608A68C2620A688262984207D0A0422E
:1031400005D0B84203D0604501D0404501D109699E
:10315000016301214161BDE8F0830000002C0140C2
:1031600000040040000800400034014000400140DD
:103170000044014000480140FEE700000EB54FF456
:103180008077FD4CDFF8F4A3FD4D4FF40058BE01ED
:103190004FF40049AEE00021052000F0CBFEF9A07D
:1031A00000F074FE0221052000F0C4FEF8A000F03B
:1031B0006DFE0321052000F0BDFEF8A000F066FEC4
:1031C00000F08AFD012211465046FEF7FEF801226A
:1031D00002215046FEF7F9F8012204215046FEF77D
:1031E000F4F8012208215046FEF7EFF84FF0904B1B
:1031F000002210215846FEF7E8F800222021584608
:10320000FEF7E3F8002240215846FEF7DEF80022E0
:1032100080215846FEF7D9F839462846FEF7D1F8FE
:103220004FF400712846FEF7CCF84FF48061284631
:10323000FEF7C7F84FF400612846FEF7C2F84FF4D6
:1032400080512846FEF7BDF841462846FEF7B9F8FA
:1032500031462846FEF7B5F849462846FEF7B1F84C
:1032600001212846FEF7ADF802212846FEF7A9F80D
:1032700004212846FEF7A5F808212846FEF7A1F804
:1032800010212846FEF79DF820212846FEF799F8E0
:1032900040212846FEF795F880212846FEF791F850
:1032A00041465046FEF78DF831465046FEF789F804
:1032B00049465046FEF785F84FF4FA70FDF798FF3F
:1032C00000F0D8FD002201215046FEF77EF80022D2
:1032D00002215046FEF779F8002204215046FEF7FD
:1032E00074F8002208215046FEF76FF84FF49670EC
:1032F000FDF77EFF206900283FF44DAF00F0ECFCA5
:1033000000223946AB462846FEF75FF800224FF40C
:1033100000715846FEF759F800224FF48061584674
:10332000FEF753F800224FF400615846FEF74DF8BF
:1033300000224FF480515846FEF747F800224146DC
:103340005846FEF742F84FF4804500222946584679
:10335000FEF73BF86E00002231465846FEF735F87E
:10336000002201215846FEF730F80022022158467B
:10337000FEF72BF8002204215846FEF726F800221B
:1033800008215846FEF721F8002210215846FEF782
:103390001CF8002220215846FEF717F80022402191
:1033A0005846FEF712F8002280215846FEF70DF825
:1033B000002269105046FEF708F8002229466F489F
:1033C000FEF703F8002231466C48FDF7FEFF764811
:1033D000FEF72EFE74484030FEF72AFE0120A06062
:1033E00039465846FDF7EDFF00F0E2FAFDF740F8E8
:1033F0006EA102A8E26800F05FF90321122000F03C
:1034000099FD02A800F042FD6748FEF705FE6648F8
:103410004030FEF701FE64488030FEF7FDFD624853
:10342000A838FDF701FE01254FF49679206901289F
:1034300004D1FFF771F80546FFF724FA2069022846
:103440002DD100F0A9FA00204E4620610021052070
:1034500000F070FD56A000F019FD0121052000F0DC
:1034600069FD55A000F012FD50A16846226800F0E9
:1034700023F90221052000F05DFD684600F006FDFD
:1034800000F02AFC3046FDF7B3FE00F0F3FC3046B6
:10349000FDF7AEFE20690028D8D0FFF76FFE012DA2
:1034A000C4D04148FEF7C4FD3F484030FEF7C0FDA0
:1034B0003D48A838FDF778FE5F4600224FF4807142
:1034C0005C463846FDF781FF00224FF4007120462C
:1034D000FDF77BFF00224FF480612046FDF775FF6A
:1034E00000224FF400612046FDF76FFF00224FF4E9
:1034F00080512046FDF769FF002241462046FDF736
:1035000064FF4FF48046002231462046FDF75DFF00
:103510007500002229462046FDF757FF00220121B1
:103520002046FDF752FF002202212046FDF74DFF05
:10353000002204212046FDF748FF002208212046F2
:10354000FDF743FF002210212046FDF73EFF002239
:1035500020212046FDF739FF002240212046FDF7BB
:1035600034FF002280212046FDF72FFF0022414634
:103570005446504626E00000140000200008004891
:103580000010004844454154482052414345000042
:1035900040686F64615F6D737700000040736F6710
:1035A000616E6444565200001C0200202564000035
:1035B000594F552057494E00434F4E54494E55459B
:1035C0003F000000FDF701FF002231462046FDF7D5
:1035D000FCFE002229462046FDF7F7FEA2464FF4E6
:1035E000FA7B0121042000F0A5FC30A000F04EFC85
:1035F00000F072FB4FF480713846FDF7E2FE4FF4A5
:1036000000713846FDF7DDFE4FF480613846FDF766
:10361000D8FE4FF400613846FDF7D3FE4FF48051D9
:103620003846FDF7CEFE444641463846FDF7C9FE12
:1036300031463846FDF7C5FE29463846FDF7C1FE3E
:1036400001213846FDF7BDFE02213846FDF7B9FEDF
:1036500004213846FDF7B5FE08213846FDF7B1FED6
:1036600010213846FDF7ADFE20213846FDF7A9FEB2
:1036700040213846FDF7A5FE80213846FDF7A1FE22
:10368000214654465046FDF79CFE31462046FDF744
:1036900098FE29462046FDF794FE5846FDF7A8FD02
:1036A00000F0E8FB4846FDF7A3FD9AE747414D458A
:1036B000204F5645520000000FB4084B10B504A926
:1036C00002AA039800F01CF8044602A9002000F0AA
:1036D000C1F8204610BC5DF814FB00005538000806
:1036E00002E008C8121F08C1002AFAD170477047CB
:1036F000002001E001C1121F002AFBD17047000029
:103700002DE9FF4F89B09B460446002506E0252899
:103710000BD05A460B999047641C6D1C20780028EA
:10372000F5D10DB02846BDE8F08F0027B84601223C
:10373000474900E0074314F8013F203B02FA03F039
:103740000842F7D120782E2819D114F8010F47F03C
:1037500004072A280ED06FF02F022078A0F1300144
:1037600009290CD808EB880102EB410100EB0108A4
:10377000641CF2E70A98641C50F8048B0A902078C5
:103780000028CED0642808D0692806D075281ED01D
:103790005A460B9990476D1C58E00A994FF00A0958
:1037A00001C90A91002802DA40422D2102E03905C0
:1037B00004D52B218DF82010012103E0F90704D056
:1037C0002021F7E78A4608AE0DE00021FAE70A99C2
:1037D0004FF00A0901C90A91F7E74946FCF709FDCC
:1037E000303106F8011D0028F7D1ADEB060000F1DD
:1037F0002009780701D44FF00108C84502DDA8EB85
:10380000090000E000208046002706E008A85A468C
:10381000C05D0B9990476D1C7F1C5745F6DB04E09B
:1038200030205A460B9990476D1CB8F10001A8F161
:103830000108F5DC05E016F8010B5A460B99904794
:103840006D1CB9F10001A9F10109F4DC641C65E704
:10385000092801000A68531C0B60107070470000B3
:1038600030B54B4C85B00D46012903D9A17841F004
:103870000801A17000F1400302466571402100205B
:1038800000F06CFB607828B1012D03D1A07840F0E6
:103890000400A07000F02CFA032003900120019096
:1038A00021783C480029E2880188638941EA0201C5
:1038B000228942EA030241EA0201428841EA020106
:1038C000828841EA020101D0C08808E0C288114321
:1038D00002891143428911438289C08911430143FE
:1038E00000916946E068FDF7A3FC3220FDF780FCFB
:1038F0000022E188E068FDF768FD00226189E06848
:10390000FDF763FD2189FF2903D00022E068FDF760
:103910005CFDA078C10615D4032000F02FFB052024
:10392000FDF766FC032000F029FB0520FDF760FC95
:10393000032000F023FB0120FDF75AFC022000F0D9
:103940001DFB13E040F0200000F02FF80520FDF7EC
:103950004FFCA07840F0200000F027F80120FDF790
:1039600047FCA07840F0200000F01FF8A07840F05D
:10397000200000F01AF80420E07000F0ADF900F02B
:103980000BF802202071062000F00FF805B030BDC2
:10399000000000206401002010B5012000F005F8AF
:1039A000BDE810400220FDF723BC002100F0A0BAC2
:1039B00010B5BF490A2000F07DF9BD490B20083140
:1039C00000F078F9BA490C20103100F073F9B849C9
:1039D0000D20183100F06EF9B5490E20203100F0AD
:1039E00069F9B3490F20283100F064F9B04910207B
:1039F000303100F05FF9AE491120383100F05AF94A
:103A0000AB491220403100F055F9A9491320483143
:103A100000F050F9A6491420503100F04BF9A449A8
:103A20001520583100F046F9A1491620603100F008
:103A300041F99F491720683100F03CF99C49182052
:103A4000703100F037F9FFF7A7FF0021082000F0E0
:103A500071FA0C2000F08CFA0021092000F06AFABB
:103A60000B2000F085FA0121092000F063FA0A20FA
:103A700000F07EFA0221092000F05CFA0A2000F032
:103A800077FA0321092000F055FA0A2000F070FAB5
:103A90000321082000F04EFA0A2000F069FA032101
:103AA0000A2000F047FA0A2000F062FA4FF4FA7494
:103AB0002046FDF79DFBFFF76FFF0121082000F076
:103AC00039FA0D2000F054FA0021082000F032FAF3
:103AD0000C2000F04DFA0021092000F02BFA0B20F9
:103AE00000F046FA00210A2000F024FA0B2000F032
:103AF0003FFA00210B2000F01DFA0B2000F038FAED
:103B000000210C2000F016FA0E2000F031FA0121FD
:103B10000C2000F00FFA0F2000F02AFA01210B20F0
:103B200000F008FA0C2000F023FA02210B2000F02C
:103B300001FA0D2000F01CFA02210A2000F0FAF927
:103B4000102000F015FA0221092000F0F3F90C20F2
:103B500000F00EFA0321082000F0ECF9112000F02B
:103B600007FA0321092000F0E5F9122000F000FA1D
:103B700003210A2000F0DEF90B2000F0F9F90321FF
:103B80000B2000F0D7F90B2000F0F2F903210C20F4
:103B900000F0D0F90B2000F0EBF92046FDF728FBF0
:103BA000FFF7FAFE0021072000F0C4F90C2000F016
:103BB000DFF90021082000F0BDF90B2000F0D8F952
:103BC0000021092000F0B6F90B2000F0D1F9002106
:103BD0000A2000F0AFF90B2000F0CAF900210B20F9
:103BE00000F0A8F90E2000F0C3F901210B2000F02D
:103BF000A1F90D2000F0BCF901210A2000F09AF98A
:103C0000132000F0B5F90121092000F093F91420E8
:103C100000F0AEF90121082000F08CF90C2000F032
:103C2000A7F90221082000F085F9152000F0A0F97D
:103C30000221092000F07EF9162000F099F90221F6
:103C40000A2000F077F9172000F092F902210B20EA
:103C500000F070F90E2000F08BF903210B2000F02A
:103C600069F90D2000F084F903210A2000F062F9BF
:103C7000182000F07DF90321092000F05BF90B20EA
:103C800000F076F90321082000F054F90B2000F031
:103C90006FF90321072000F04DF90B2000F068F9BF
:103CA0002046FDF7A5FABDE81040FFF775BE0000FD
:103CB0007C00002070B50D4600F00700402141EA6D
:103CC000C000FFF772FE00240121285D00F010F90A
:103CD000641C082CF8DB70BD0449C87840F004006F
:103CE000C87040F00800FFF760BE00000000002030
:103CF000234808B5C1682348B1F1904F0BD0224A40
:103D0000914210D1416941F480214161406900F440
:103D10008020009008BD416941F400314161406953
:103D200000F40030F5E7194A914207D1416941F4A6
:103D300000214161406900F40020EAE7144A914201
:103D400007D1416941F480114161406900F480105C
:103D5000DFE7104A914207D1416941F40011416106
:103D6000406900F40010D4E70B4A9142D2D1416976
:103D700041F480014161406900F48000C9E700001E
:103D80000000002000100240000400480008004825
:103D9000000C004800100048001400482DE9F05FB6
:103DA0000AAC94E8E05F0F4CE28023816581E1601A
:103DB0000D490E804F80A1F80480A1F80690A1F86B
:103DC00008A0A1F80AB0A1F80CC0A1F80EE008B153
:103DD000002000E01020A070BDE8F05F022110205C
:103DE000FFF73EBD00000020640100201FB5FDF775
:103DF000FFFAFEF75CFDFEF77FFAFEF715FBFEF714
:103E000033FBFEF717FA184816490024016049F2FF
:103E10008701C0E901140721C0E9031444618461EA
:103E2000FEF798F800B1FEE7FEF738FA4FF480434A
:103E30005A10511048108DE80F0043108210C11025
:103E40000A48FEF7D3F904211420FFF709FD084DB5
:103E50002C61FEF7E5FC6C61AC6108206C62E860E7
:103E6000FFF78CF9004401409C020020000C004840
:103E7000140000200449C87820F00400C87040F005
:103E80000800FFF792BD00000000002070B5002878
:103E90000FD00446FCF7A6F90546002606E000BF51
:103EA00014F8010B012100F023F8761C6D1EF7D2E7
:103EB000304670BD10B50D4C00226189E068FDF7F9
:103EC00084FA0120FDF794F901226189E068FDF789
:103ED0007CFA0120FDF78CF900226189E068FDF78A
:103EE00074FABDE810400120FDF782B900000020FF
:103EF00070B50F4C05460A46E188E068FDF765FAA3
:103F00002189FF2903D00022E068FDF75EFAA0783E
:103F1000C00604D52846BDE8704000F049B828091D
:103F200000F02CF82846BDE8704000F027B80000EB
:103F300000000020042900D30321074A527991424E
:103F400001D3521ED1B2044A1032515C0844C0B2AF
:103F500040F08000FFF729BD0000002010B5034CA1
:103F600020706170A270E37010BD0000100000208E
:103F700010B50121FFF7BCFF012010BD2DE9F04174
:103F8000094E0A4F0546002425FA04F000F001020C
:103F900036F81410F868FDF718FA641C042CF3DBEB
:103FA000BDE8F041FFF786BF64010020000000205B
:103FB0002DE9F041094E0A4F0546002425FA04F088
:103FC00000F0010236F81410F868FDF7FEF9641CE1
:103FD000082CF3DBBDE8F041FFF76CBF6401002063
:103FE0000000002002030405060708090A0B0C0D57
:103FF0000E0F10100102030405060708090A0B0C36
:104000000D0E0F100000000000000000010203046C
:104010000607080934400008000000206401000081
:1040200044020008C440000864010020C4050000E8
:10403000F0360008023B016011181C1E1C181C1CE5
:104040001803070F07030707032C0A1F01101F039C
:104050000B1F101C1E21180A1A1F040A0A1F111F09
:104060000A3117041A1B010D13580903040B1B1006
:1040700016091F01416908194C9E1F1F1E1C106460
:10408000191A58080F0F0E1C1810011D49081901A4
:10409000195E29072910531C181B0307291A1F7FB3
:1040A000414E10181E1F03E1190B19931D0303073E
:1040B0001EB00118492B01161AFF01012429447969
:0440C000BD53127A60
:040000050800018965
:00000001FF
