:020000040800F2
:10000000E00500209D010008F3210008E71F00081B
:10001000F121000831030008F1270008000000006A
:10002000000000000000000000000000172200088F
:10003000330300080000000015220008CD2300084B
:10004000B7010008B7010008B7010008B7010008B0
:10005000B7010008B70100080D040008B701000847
:10006000B7010008B7010008B7010008B701000890
:10007000B7010008B7010008B7010008B701000880
:10008000B7010008B701000819020008B70100080D
:10009000B7010008B7010008B7010008B701000860
:1000A000B7010008B7010008B7010008B701000850
:1000B000B7010008B7010008B7010008B701000840
:1000C000B7010008B7010008B7010008B701000830
:1000D000B7010008B7010008B7010008B701000820
:1000E000B7010008B7010008B7010008B701000810
:1000F000B7010008B7010008B7010008B701000800
:10010000000000000000000000000000B70100082F
:10011000B7010008B7010008BD240008D126000877
:10012000B7010008B7010008B7010008B7010008CF
:10013000B7010008B701000800000000000000003F
:10014000B7010008B7010008B7010008000000006F
:10015000000000000000000000000000000000009F
:100160000000000000000000B7010008B70100080F
:10017000B7010008000000000000000000000000BF
:1001800000000000B7010008DFF80CD000F032F8E2
:1001900000480047FD2B0008E00500200648804786
:1001A00006480047FEE7FEE7FEE7FEE7FEE7FEE75C
:1001B000FEE7FEE7FEE7FEE7552400088901000898
:1001C0000649074A0868504343F239021044086060
:1001D000400870470149086070470000B0000020E7
:1001E0006D4EC641421C10F8011B0029FBD1801A3C
:1001F00070470000064C074D06E0E06840F0010340
:1002000094E8070098471034AC42F6D3FFF7C0FFDC
:10021000F82D0008182E0008104810B54168491C38
:100220004160032911D1002141600D4800F064FBB9
:1002300000EB800101EBC0003F2190FBF1F0094988
:10024000401C0860084901200860054800F038FE9D
:10025000BDE81040024800F053BB000070000020D1
:10026000C4000020280000202C00002070B50446A7
:100270000068816801F00301012926D10168C907DE
:1002800023D0816801F00D01012910D1816841F06E
:100290000201816021680320086000F0C3FF054669
:1002A0000FE000BF00F0BEFF401B022809D9606CC0
:1002B00040F010006064A06C40F00100A0640120D8
:1002C00070BD20688068C007ECD1002070BD0000C0
:1002D00070B504460068816801F00301012902D16C
:1002E0000168C90720D18168104A11420DD1816887
:1002F00041F00101816000F095FF05460FE000BF6D
:1003000000F090FF401B022809D9606C40F01000FB
:100310006064A06C40F00100A064012070BD206802
:100320000068C043C007EBD1002070BD3F000080D3
:10033000FEE770472DE9F04102F08EFC30490020C5
:1003400002F0C0FB2E490120083102F0BBFB2C4912
:100350000220103102F0B6FB29490320203102F0BF
:10036000B1FB27490420183102F0ACFB24490520D9
:10037000283102F0A7FB22490620383102F0A2FB07
:100380001F490720303102F09DFB1E4F002500243D
:1003900007EB8506E1B2E8B202F0BEFC305D4C2806
:1003A00016D006DC2D280DD0432822D0442812D1A7
:1003B0001BE04D281FD04E281FD0522806D063289E
:1003C00009D114E010A002F053FC04E0012000E089
:1003D000002002F0BFFC641C042CDBDB6D1C122D22
:1003E000D5DBBDE8F04102F07FBB0220F1E703203E
:1003F000EFE70420EDE70620EBE70720E9E7000040
:1004000030000020980100202000000010B50121DC
:100410004FF0904000F0F8FE10B104490120086050
:10042000BDE81040012000F01FBE00001C000020AD
:1004300010B50446FFF7C4FE90FBF4F104FB110075
:1004400010BD70477047704770470000F0B500233B
:1004500002684FF0A04C3D4C95B01F46624501D15B
:1004600000940DE0A24202D1CDF800C008E0384D62
:10047000384EAA4201D1009602E0B24214D1009552
:1004800090F84050012D12D0012580F84050956819
:100490006D0752D4009DAD686D074ED4624501D002
:1004A000A24206D12C4A05E0012015B0F0BD022081
:1004B000FBE72A4A0D6840F61F741DB39568466B2A
:1004C00025F4604545EA46354E6835439560056834
:1004D000AE6806F00306012E02D12D68ED0731D17A
:1004E000009DAD6805F00305012D03D1009D2D6829
:1004F000ED0727D10D6889680D439168A1430D432D
:1005000095601FE0916821F46041916001688D68F9
:1005100005F00305012D02D10968C90712D1009920
:10052000896801F00301012903D100990968C9070D
:1005300008D19168A143916004E0416C41F0200131
:100540004164012380F840701846AEE70001005076
:100550000004005000050050000300500007005048
:10056000F0B595B00024009490F840202546012A6B
:1005700019D0012780F8407003689A6852077CD42C
:100580004A681F26052A11D2D3F830C002EB420276
:10059000520096402CEA060C0E6896404CEA060C77
:1005A000C3F830C035E0022015B0F0BD0A2A0FD2E2
:1005B000D3F834C0521F02EB4202520096402CEA9C
:1005C000060C0E6896404CEA060CC3F834C020E0D6
:1005D0000F2A0FD2D3F838C00A3A02EB4202520077
:1005E00096402CEA060C0E6896404CEA060CC3F8BE
:1005F00038C00EE0D3F83CC00F3A02EB4202520082
:1006000096402CEA060C0E6896404CEA060CC3F89D
:100610003CC00268936813F00C0F4FF0070374D1CD
:10062000D1F800E0BEF10A0F10D39669AEF10A0EC0
:100630000EEB4E0C03FA0CFE26EA0E06D1F808E08B
:100640000EFA0CFE46EA0E0696610FE0D2F814C0D0
:100650000EEB4E0603FA06FE2CEA0E0CD1F808E06B
:100660000EFA06FE4CEA0E0CC2F814C002684E697F
:10067000D2F80CC0CCF3C10C00E0FDE04FEA4C0C0A
:1006800006FA0CF6D1F810E0DFF848C2BEF1010F0F
:1006900042D0BEF1020F4DD0BEF1030F58D0BEF1D3
:1006A000040F63D0166E91F800C006F0F846B6EB62
:1006B0008C6F03D1166E26F0004616660268566EE1
:1006C00091F800C006F0F846B6EB8C6F03D1566E79
:1006D00026F0004656660268966E91F800C006F055
:1006E000F846B6EB8C6F03D1966E26F00046966600
:1006F0000268D66E91F800C006F0F846B6EB8C6F33
:1007000003D1D66E26F00046D6660268966806F0DB
:100710000306012E3AD136E0D2F860E00EEA0C0E64
:1007200091F800C046EA8C664EEA060E4EF000468E
:100730001666EAE7D2F864E00EEA0C0E91F800C003
:1007400046EA8C664EEA060E4EF000465666DCE738
:10075000D2F868E00EEA0C0E91F800C046EA8C660A
:100760004EEA060E4EF000469666CEE7D2F86CE0F2
:100770000EEA0C0E91F800C046EA8C664EEA060EB0
:100780004EF00046C0E71668F6077AD1CE68012E13
:1007900006D052F8B03F0E78B740BB43136021E05B
:1007A00052F8B06F91F800C007FA0CF73E4316609C
:1007B0000A680A2A0BD30668B769093A02EB4202B3
:1007C00093409F438B6893401F43B7610AE00768DB
:1007D0007E69521C02EB420293409E438B68934019
:1007E0001E437E6103684FF0A0473B4EBB4201D0E1
:1007F000B34201D1394A00E0394A0968102904D0CE
:10080000112907D012290AD03BE0D2F808C04FEADC
:100810000C2C08E0D2F808C04FEACC1C03E0D2F858
:1008200008C04FEA4C2CBCF1000F2ADBBB420DD0B4
:10083000B34201D100970CE02A4EDFF8ACC0B342BE
:1008400002D1CDF800C004E0634501D1009600E07C
:1008500000959E6806F00306012E02D11E68F60779
:100860000AD1009E8EB1B66806F00306012E0CD1A7
:10087000009E3668F60708D0416C41F020014164C3
:10088000012480F8405020468EE6102908D0112916
:100890001AD01229F5D1916841F480019160F0E7F6
:1008A000BB42EED1916841F4000191600F49104ABA
:1008B0000968B1FBF2F101EB8101490000E0491E3A
:1008C00000910029FBD1DCE7BB42DAD1916841F00D
:1008D0008071E3E700F0FF83000100500003005047
:1008E000000700500004005000050050AC0000203C
:1008F00040420F00704770470068006C704700006E
:100900002DE9F041044600680168C34FC34DC44E51
:1009100049074FF0A04802D54168490705D401684E
:10092000090761D5416809075ED5616CC90603D422
:10093000616C41F4007161644146884201D0B0426B
:1009400002D1D1F8082300E03A6812F01F0F1BD043
:10095000884201D0B04202D1D1F8082300E03A68C1
:1009600002F01F02052A0FD0884201D0B04202D106
:10097000D1F8082300E03A6802F01F02092A03D0E8
:10098000884201D0A84201D1C16803E0B04200D042
:100990002946C968C26812F4406F1FD189041DD46A
:1009A000016809071AD5816849070FD4416821F009
:1009B0000C014160606C20F480706064606CC00465
:1009C0000CD4606C40F00100606407E0606C40F0A3
:1009D00010006064A06C40F00100A0642046FFF7A6
:1009E00089FF21680C20086020680168890602D50B
:1009F0004168890605D4016849066ED541684906F3
:100A00006BD5616C41F4005161644246904201D063
:100A1000B04202D1D2F8081300E0396811F01F0F7C
:100A20001CD0904201D0B04202D1D2F8081300E0AD
:100A3000396801F01F01052910D04146884201D0D4
:100A4000B04202D1D1F8083300E03B6803F01F0345
:100A5000092B03D0884201D0A84201D1C16803E02C
:100A6000B04200D02946C968C36C13F0C00F07D04C
:100A70008B0154D4C36813F4406F50D189044ED411
:100A8000016849064BD51146884201D0B04202D1D7
:100A9000D1F8082300E03A6812F01F0F1BD08842FB
:100AA00001D0B04202D1D1F8082300E03A6802F048
:100AB0001F02062A0FD0884201D0B04202D1D1F8DD
:100AC000082300E03A6802F01F02072A03D0884298
:100AD00001D0A84202D1C16804E026E0B04200D0B3
:100AE0002946C96889021AD4816809070FD4416868
:100AF00021F060014160606C20F480506064606CA3
:100B0000C0050CD4606C40F00100606407E0606CCC
:100B100040F010006064A06C40F00100A06420462A
:100B2000FFF78FFC216860200860206801680906D3
:100B30000CD54068000609D5606C40F480306064D4
:100B4000204600F095F9216880200860206801683F
:100B5000C9050DD54068C0050AD5606C40F4003069
:100B600060642046FFF76FFC21684FF480700860D6
:100B70002068016889050DD5406880050AD5606C3C
:100B800040F4802060642046FFF75EFC21684FF44B
:100B90000070086020680168C90622D54168C9064E
:100BA0001FD5A16B01290ED0404501D0B04201D123
:100BB0001C4901E0184908398A68D20628D088689B
:100BC00000F4404050B1606C40F480606064A06C00
:100BD00040F00200A0642046FFF78DFE216810203F
:100BE000086020680168490510D5416849050DD5A0
:100BF000616C41F480416164A16C41F00801A16421
:100C00004FF4806101602046FFF71CFCBDE8F081D5
:100C1000C068C007D6E70000080700500004005075
:100C20000001005000030050F0B54FF0000695B0F1
:100C3000040037463546009605D0606CC00648D49F
:100C4000606C18B133E0012015B0F0BDA5642565D6
:100C5000E56484F84050204600F00CF92068806874
:100C6000C00024D42046FFF701FB0646606CC00696
:100C70001DD4E6B9606C20F4885040F00200606436
:100C80002068816821F0405181602068816841F0CE
:100C9000805181606D486E490068B0FBF1F000EB57
:100CA0008000400000E0401E00900028FBD120683A
:100CB0008168C90002D5806880000AD5606C20F088
:100CC000020040F010006064A06C40F00100A064DD
:100CD0000126606CC00675D4002E73D1206881682F
:100CE00049076FD4616C21F4807141F002016164A5
:100CF0004FF0A04E574B704501D0984201D1564A53
:100D000000E0564ADFF858C15649704501D10093BA
:100D10000EE0984202D1CDF800E009E0884202D10D
:100D2000CDF800C004E0604501D1009100E00095DD
:100D3000836803F00303012B02D10068C00710D1C0
:100D4000009840B1806800F00300012803D10098AA
:100D50000068C00705D19068636820F440301843EC
:100D60009060D4E902201043A26B012A02D04FF414
:100D7000805300E00023E26943EA42331843636A88
:100D80003843012B0AD1F2B1626C22F0020242F028
:100D900020026264A26C42F00102A264E26A012AAB
:100DA00021D023688B4201D0634518D14FF43077AE
:100DB0004FF4E071BA4213D04FF480739A420AD1D3
:100DC00039460DE038E0228D274B03EB42420243C7
:100DD00042F48030E2E78A4201D1194600E0114630
:100DE0000143206B084321688A6812F00C0F0AD176
:100DF000CA6844F202039A43CA60A169626B89031C
:100E000041EA420108432268D168184B1940014366
:100E1000D160206901282068016B21F00F0102D107
:100E2000226A521E11430163A564606C20F0020027
:100E300040F00100606406E0606C20F0020040F0C9
:100E40001000606401263046FEE60000AC00002081
:100E500040420F0000010050000300500007005006
:100E600000050050000400500000FEFF07C0F0FF26
:100E70007047000000B5006887B0B0F1A04F1BD1EB
:100E80000E48416941F0805141614069694600F076
:100E900080500590082000900320019000200290CF
:100EA0004FF0904000F0ECF800220321122000F0F7
:100EB00045FA122000F036FA07B000BD00100240DB
:100EC0002DE9F041044600688068400770D494F82A
:100ED000400001280CD0012084F840002046FFF794
:100EE000F7F903004FF0000605D084F840609EE05B
:100EF0000220BDE8F081606C40F60161884340F457
:100F00008070606420684FF0A0414A4A4A4D884290
:100F100001D0904202D1D1F8087300E02F6817F099
:100F20001F0F464F03D0884201D0B8420BD1D4F8EE
:100F300044C02CF4801CC4F844C0D0F80CC05FEA54
:100F40008C1C14D41BE0D4F844C04CF4801CC4F8AE
:100F500044C0904202D1D1F80CC005E0DFF8DCC0FB
:100F60000CF10C0CDCF800C01CF0007F07D0D4F8AA
:100F700044C02CF4005C4CF4805CC4F844C0D4F849
:100F800044C05FEACC4C06D5D4F848C02CF0060C1F
:100F9000C4F848C000E0A66484F840601C260660DF
:100FA000606908282068466803D046F00C0607E010
:100FB0003CE026F0040646602068466846F00806D5
:100FC0004660A06B012804D12068466826F0100610
:100FD00046602068884201D0904202D1D1F808438F
:100FE00000E02C6814F01F0F1BD0884201D0904203
:100FF00002D1D1F8084300E02C6804F01F04052C4E
:101000000FD0884201D0904202D1D1F8082300E0ED
:101010002A6802F01F02092A03D0884201D0B84290
:1010200005D1816841F00401816000E00223184687
:101030005FE7000000010050080700500004005066
:1010400070B5044600F0EEF80546601C02D0044876
:101050000078044400F0E6F8401BA042FAD370BDCB
:10106000A000002070470000044910B50A68024241
:1010700002D00860FFF7F6FF10BD00001404014025
:101080002DE9F84FDFF864B100234FF0010C4FF069
:10109000030A4FF00F090BF1040EA0E00CFA03F65F
:1010A000324072D04C68022C01D0122C0ED1DC08D8
:1010B00000EB8408D8F820405D07EF0E09FA07F529
:1010C000AC430D69BD402543C8F8205007685D005A
:1010D00091F804800AFA05F408F00308A74308FA17
:1010E00005F848EA0708C0F800804F68012F05D0CE
:1010F000022F03D0112F01D0122F11D18768D1F800
:101100000C80A74308FA05F848EA0708C0F80880E9
:101110004768B7430E79C6F300169E403E434660CB
:10112000C668A6438C68AC403443C4604C68E40095
:1011300054D52F4CA56945F00105A561A46923F09C
:10114000030504F0010400942A4C2E19B4689D078D
:101150002F0F09FA07F5AC43B0F1904F04D0264D9C
:10116000A84203D1012512E0002510E0234DA8423A
:1011700001D102250BE0224DA84201D1032506E052
:10118000204DA84202D1042501E027E00525BD40FD
:101190002543B560DBF800405D464E689443F60396
:1011A00000D514432C60DEF8004075464E68944329
:1011B000B60300D514432C600C4D08352C684E68DE
:1011C0009443F60200D514432C60084D0C352C686E
:1011D0004E689443B60200D514432C605B1C0A6829
:1011E00032FA03F47FF45AAFBDE8F88F00040140EF
:1011F00000100240000001400004004800080048C0
:10120000000C0048001000480069084000D0012090
:10121000704742694A40426170470AB18161704734
:10122000816270470148806870470000A00000207C
:10123000024881680278114481607047A000002054
:10124000074810B5016841F010010160032000F06B
:1012500095F8002000F006F800F024F8002010BDFA
:101260000020024070B50D4D04464FF47A71287885
:10127000B1FBF0F00A490968B1FBF0F000F04BFD5A
:1012800048B9102C07D200222146501E00F056F813
:1012900000206C6070BD012070BD0000A000002027
:1012A000AC0000201E4808B5816941F00101816150
:1012B000816901F001010091C16941F08051C16172
:1012C000C06900F080500090052000F057F800221F
:1012D00011466FF00B0000F031F8002211466FF05C
:1012E0000A0000F02BF8002211466FF0090000F010
:1012F00025F800221146501F00F020F80022114668
:10130000101F00F01BF800221146901E00F016F886
:101310000022BDE808401146501E00F00FB8000042
:101320000010024000F01F0201219140400980009E
:1013300000F1E020C0F8001170470000F0B40E4B3F
:101340001B680C46C3F30223C3F10705042D00D923
:101350000425191D072901D2002300E0DB1E012608
:1013600006FA05F1491E214099409E40761E16401E
:101370003143F0BC00F03EBF0CED00E0064900F048
:10138000070208684FF6FF03184040EA0220034AAC
:1013900010430860704700000CED00E00000FA0503
:1013A0002DE9F84F04460068804DC0036FD5E86909
:1013B0000026C00008D4E86940F08050E861E86980
:1013C000012600F08050009079480168C90512D4C8
:1013D0000168804641F480710160FFF723FF0746F2
:1013E00005E000BFFFF71EFFC01B642835D8D8F802
:1013F0000000C005F6D5286A10F4407053D0A188CB
:1014000001F4407181424ED0286A4FF4803191FA44
:10141000A1F2B2FA82F29700664A4FF0010817442F
:1014200020F44070C7F8008491FAA1F1B1FA81F17B
:1014300002EB81010023C1F800342862C00732D0DA
:10144000FFF7F0FE074641F2883A4FF0020907E045
:10145000FFF7E8FEC11B514502D90320BDE8F88F14
:1014600099FAA9F1B1FA81F141F040014846B8EB8F
:10147000511F01D129680CE090FAA0F1B1FA81F175
:1014800041F04001B0EB511F02D1296A01E015E0A3
:10149000696A99FAA9F0B0FA80F000F01F0008FA22
:1014A00000F21142D4D0286A616820F440700843E9
:1014B00028621EB1E86920F08050E8612078C007FA
:1014C00005D0286BA16820F003000843286320782A
:1014D000800705D5286BE16820F440300843286375
:1014E0002078400705D5286B216920F44020084367
:1014F00028632078800605D5286BE16920F010006C
:10150000084328632068800305D56868A16B20F430
:101510008000084368602078400605D5286B216A62
:1015200020F02000084328632078000705D5286BA9
:10153000616920F44010084328632078C00605D56F
:10154000286BA16920F440000843286320888005A7
:1015500005D56868E16A20F40000084368602078D7
:10156000000605D5E86A616A20F4F8700843E8626D
:101570002088C00505D5E86AA16A20F478500843A0
:10158000E8622088C00405D5286B216B20F48070A8
:10159000084328632088800405D5286B616B20F4FC
:1015A000007008432863002058E700000010024044
:1015B00000700040000042422DE9F0470F46050050
:1015C00069D04A4E306800F00700B84209D230684E
:1015D00020F0070038433060306800F00700B84260
:1015E00059D12878424C800705D56068A96820F059
:1015F000F000084360602878C0073DD0696801208A
:1016000001290DD0022923D05FF0020393FAA3F23F
:10161000B2FA82F242F02002520904D0226803E0BA
:101620004FF40033F2E7626A93FAA3F3B3FA83F359
:1016300003F01F03984002422DD0606820F00300A1
:1016400008436060FFF7EEFD804641F288390CE008
:101650004FF00073DAE700BFFFF7E4FDA0EB0801ED
:10166000494502D90320BDE8F0876068696800F049
:101670000C00B0EB810FEFD1306800F00700B842EA
:101680000BD9306820F0070038433060306800F034
:101690000700B84201D00120E5E72878400705D5CA
:1016A0006068E96820F4E06008436060287800071B
:1016B00006D56068296920F4605040EAC100606086
:1016C00000F022F86168F02292FAA2F201F0F00133
:1016D000B2FA82F2D140074A515CC840064908601C
:1016E0000020FFF7BFFD0020BDE700000020024002
:1016F00000100240E82D0008AC00002001480068FE
:1017000070470000AC000020144B10B55A68144814
:1017100002F00C0104291DD008291BD14FF47014CC
:1017200094FAA4F402F47011B4FA84F4E1400D4C7C
:10173000DB6A615C0F2494FAA4F403F00F03B4FA9B
:1017400084F4E340074C1034D203E35C03D5B0FBD0
:10175000F3F0484310BD0448484310BD0010024058
:1017600000127A00C82D000800093D002DE9F84F4D
:10177000040071D02078FB4DC0074FF0010625D042
:1017800068687704C0F38100012807D06868C0F357
:10179000810002281BD16868C00318D597FAA7F00A
:1017A000B0FA80F040F02000400901D0286800E045
:1017B000686A97FAA7F1B1FA81F101F01F0106FA00
:1017C00001F1084265D060680028D2D061E060680D
:1017D000B0F5803F0BD010B1B0F5A02F17D028681E
:1017E00020F480302860286820F4802002E02868F7
:1017F00040F480302860E86AA16820F00F000843B8
:10180000E862606820B3FFF70DFD80460AE02868B3
:1018100040F480202860EAE7FFF704FDA0EB080011
:10182000642872D897FAA7F0B0FA80F040F0200050
:10183000400901D0286800E0686A97FAA7F1B1FA78
:1018400081F101F01F0106FA01F10842E4D020E025
:10185000FFF7E8FC804607E0C7E000BFFFF7E2FCC7
:10186000A0EB08006428DCD897FAA7F0B0FA80F063
:1018700040F02000400901D0286800E0686A97FA2B
:10188000A7F1B1FA81F101F01F0106FA01F1084256
:10189000E4D12078DFF8D08280074FF0000A4FF0C3
:1018A000020759D568684FF0F80B10F00C0F07D0FD
:1018B0006868C0F3810002281BD16868C00318D48F
:1018C00097FAA7F0B0FA80F040F02000400901D06C
:1018D000286800E0686A97FAA7F1B1FA81F101F08F
:1018E0001F0106FA01F108422BD0206901287CD1A2
:1018F00027E0206988B396FAA6F0B0FA80F048F89D
:101900002060FFF78FFC814606E055E1FFF78AFC77
:10191000A0EB0900022884D897FAA7F0B0FA80F06B
:1019200040F02000400901D0286800E0686A97FA7A
:10193000A7F1B1FA81F101F01F0106FA01F10842A5
:10194000E4D028689BFAABF26169B2FA82F220F027
:10195000F80091400843286025E0FFE796FAA6F1D9
:10196000B1FA81F148F821A0FFF75CFC814605E05F
:10197000FFF758FCA0EB09000228CCD897FAA7F093
:10198000B0FA80F040F02000400901D0286800E063
:10199000686A97FAA7F1B1FA81F101F01F0106FA1E
:1019A00001F10842E4D1207800076AD5A069A0B30C
:1019B00096FAA6F0B0FA80F008EB8000C0F88064D8
:1019C000FFF730FC814605E0FFF72CFCA0EB090097
:1019D0000228A0D897FAA7F0B0FA80F040F0600093
:1019E000B6EB501F02D128680CE077E197FAA7F018
:1019F000B0FA80F040F06000B7EB501F01D1286AC8
:101A000000E0686A97FAA7F1B1FA81F101F01F01CD
:101A100006FA01F21042D7D033E0FFE796FAA6F0BB
:101A2000B0FA80F008EB8000C0F880A4FFF7FAFB62
:101A3000814605E0FFF7F6FBA0EB090002289CD8E1
:101A400097FAA7F0B0FA80F040F06000B6EB501FB4
:101A500001D128680BE097FAA7F0B0FA80F040F0C7
:101A60006000B7EB501F01D1286A00E0686A97FA5E
:101A7000A7F1B1FA81F101F01F0106FA01F210425B
:101A8000D8D12078400774D5E8694FF00009C0002C
:101A900009D4E86940F08050E861E8694FF0010935
:101AA00000F08050009031480168C90512D40168E7
:101AB00041F480710160FFF7B5FB834606E000BF8B
:101AC000FFF7B0FBA0EB0B00642875D8274800682F
:101AD000C005F5D5E06801280AD008B1052811D065
:101AE000286A20F001002862286A20F0040002E041
:101AF000286A40F001002862E068C8B3FFF792FB53
:101B000083460DE0286A40F004002862F0E700BF39
:101B1000FFF788FBA0EB0B0141F2883081424BD8E4
:101B200097FAA7F0B0FA80F040F04000B6EB501FF3
:101B300001D128680BE097FAA7F0B0FA80F040F0E6
:101B40004000B7EB501F01D1286A00E0686A97FA9D
:101B5000A7F1B1FA81F101F01F0106FA01F210427A
:101B6000D6D035E000100240000042420070004034
:101B700000E034E0FFF756FB834607E0FFF752FB37
:101B8000A0EB0B0141F28830814215D897FAA7F0FB
:101B9000B0FA80F040F04000B6EB501F01D1286849
:101BA0000CE097FAA7F0B0FA80F040F04000B7EBF5
:101BB000501F02D1286A01E083E0686A97FAA7F112
:101BC000B1FA81F101F01F0106FA01F21042D5D1FC
:101BD000B9F1000F03D0E86920F08050E861E069B6
:101BE00080B36968C1F38101022977D04FF0807119
:101BF0004F00022809D091FAA1F0B0FA80F048F81D
:101C000020A0FFF70FFB04465EE050468A4691FA9B
:101C1000A1F1B1FA81F1C14648F82100FFF702FBBA
:101C2000804605E0FFF7FEFAA0EB0800022848D83E
:101C300097FAA7F0B0FA80F040F02000400902D0F7
:101C4000286801E056E0686A97FAA7F1B1FA81F1D5
:101C500001F01F0106FA01F10842E3D1D4E90810AE
:101C60000843696821F47411084368609AFAAAF07D
:101C7000B0FA80F049F82060FFF7D4FA044604E097
:101C8000FFF7D0FA001B02281BD897FAA7F0B0FA8A
:101C900080F040F02000400901D0286800E0686A28
:101CA00097FAA7F1B1FA81F101F01F0106FA01F1EB
:101CB0000842E5D01EE000BFFFF7B4FA001B02287F
:101CC00002D90320BDE8F88F97FAA7F0B0FA80F0A8
:101CD00040F02000400902D0286801E00CE0686A6A
:101CE00097FAA7F1B1FA81F101F01F0106FA01F1AB
:101CF0000842E1D10020E5E70120E3E74FF0E021D1
:101D00000428086903D020F004000861704740F0FF
:101D10000400FAE7704710B5401EB0F1807F01D390
:101D2000012010BD4FF0E02460610F21601700F02A
:101D300061FA0020A06107202061002010BD10B5CD
:101D4000FFF7E8FF10BD70477047704730B590F857
:101D50003C20012A1FD0012280F83C2002685368F1
:101D600094680E4DAA4202D00D4DAA4203D123F42D
:101D700070054B682B4323F070050B6889682B4373
:101D800024F080042143536002689160002180F8B0
:101D90003C10084630BD022030BD0000002C014040
:101DA0000034014010B5040003D094F83D0010B198
:101DB00007E0012010BD002084F83C00204600F020
:101DC0000DF8022084F83D00211D206800F0B8FCC9
:101DD000012084F83D00002010BD000008B5154A20
:101DE0000168154891420ED1C16941F01001C161ED
:101DF000C069002200F01000009002213620FFF799
:101E00009DFA362010E00D4A914211D1C16941F08E
:101E10002001C161C069002200F020000090012172
:101E20003720FFF78BFA3720BDE80840FFF77ABA72
:101E300008BD0000001000400010024000140040E7
:101E40000168CA6842F00102CA600068016841F096
:101E50000101016000207047704770B504460068BA
:101E600001694FF00005C943890715D4C168C9430A
:101E7000890711D4E91E016101202077206880695B
:101E80008007204602D0FFF7E7FF04E000F0A7F844
:101E9000204600F0A5F8257720680169C943490765
:101EA00017D4C168C943490713D46FF00401016115
:101EB000022020772068806910F4407F204602D0FD
:101EC000FFF7CAFF04E000F08AF8204600F088F827
:101ED000257720680169C943090716D4C168C94339
:101EE000090712D46FF008010161042020772068EF
:101EF000C0698007204602D0FFF7AEFF04E000F083
:101F00006EF8204600F06CF8257720680169C94317
:101F1000C90617D4C168C943C90613D46FF01001AC
:101F20000161082020772068C06910F4407F2046B6
:101F300002D0FFF791FF04E000F051F8204600F0D6
:101F40004FF8257720680169C943C90708D1C168DE
:101F5000C943C90704D1891E0161204600F041F838
:101F600020680169C943090609D4C168C943090643
:101F700005D46FF0800101612046FFF7E5FE20687F
:101F80000169C943C90509D4C168C943090605D413
:101F90006FF4807101612046FFF7D5FE206801696A
:101FA000C943490609D4C168C943490605D46FF03D
:101FB00040010161204600F015F820680169C9431D
:101FC00089060BD4C168C943890607D46FF0200184
:101FD00001612046BDE87040FFF7B7BE70BD704795
:101FE000704770477047FEE7F0B589B00C460F495F
:101FF000DDE9106591F800E00021DDE90EC70591EB
:102000000691CDE9003C079108911346BEF1000FFF
:1020100002972246014601D0012000E00020CDE9D0
:10202000036500F0C3FD09B0F0BD00000000002012
:1020300070B518488AB04FF0A0410024C0E90014E0
:102040000461C46101254462C0E90B541821056292
:10205000C0E9021404264463C0E905648463FEF702
:10206000E3FD00B1FEE706A90A480694FEF7EEF983
:1020700000B1FEE70720CDE902040594CDE9006533
:10208000049469460348FEF76BFA002800D0FEE787
:102090000AB070BDC400002070B5204886B0416908
:1020A00041F480014161416901F480010591416978
:1020B00041F400314161416901F400310591416908
:1020C00041F4001141614069154E00F400104FF4D5
:1020D0007F450590002229463046FFF79EF81148BB
:1020E0000124CDE900400220029069464FF0904063
:1020F000FEF7C6FF00210095CDE901410391694635
:102100003046FEF7BDFF002211460620FFF716F904
:102110000620FFF707F906B070BD0000001002406E
:1021200000100048000011103EB50E480C49002474
:10213000016048F69F41C0E9011440F2CF7184610B
:10214000C160FFF72FFE00B1FEE700946946054825
:102150000294FFF7FBFD002800D0FEE73EBD000023
:1021600000100040180100203EB50E480C49002424
:10217000016043F2D301C0E9011440F2CF21846130
:10218000C160FFF70FFE00B1FEE700946946054805
:102190000294FFF7DBFD002800D0FEE73EBD000003
:1021A000001400405801002010B5FEF709F80F2177
:1021B00090FBF1F201FB12000C49401C11F82020A9
:1021C0002D2A07D0FFF7F0FFBDE810404FF4FA705A
:1021D000FEF736BF452201F82020C0B2002100F0F2
:1021E0009BFD052000F0B6FDEEE700009801002001
:1021F000FEE770470907090E002806DA00F00F0015
:1022000000F1E02080F8141D704700F1E02080F814
:1022100000147047704770472DE9F05F00244F4D60
:102220005FF02D0705EB8400C178452907D1C77001
:10223000E0B2032100F070FD022000F08BFD641C71
:10224000122CEFDBDFF818A14FF0000BDAF80C00CE
:1022500001280DD11026032405EB8600015D4529D8
:1022600016D0641EFAD5761E002EF4DCCAF80CB027
:102270004FF04D084FF04E095646B06901286AD11B
:102280005FF0010405EB8400C0784D2814D03BE0DA
:102290000755204445214170E1B2F0B200F03CFD09
:1022A00030A000F0E5FC641CE1B2F0B200F034FDB7
:1022B000052000F04FFDD6E7706984421FDC46E040
:1022C00005EB84000321C77180F8039000F8018CAE
:1022D000E0B200F021FD072000F03CFD601EC0B21E
:1022E000032100F019FD062000F034FD601CC0B28F
:1022F000032100F011FD022000F02CFD641E706926
:102300008442DDDCC6F818B0641C122CBADBB4E7DA
:1023100005EB84000321C77080F8078080F80B90DC
:10232000A01CC0B200F0F8FC072000F013FD601CF8
:10233000C0B2032100F0F0FC062000F00BFDE0B27B
:10234000032100F0E9FC022000F004FD641C706928
:102350008442DDDBD6E7BDE8F09F00009801002055
:10236000140000202000000010B5002216492D2482
:10237000002001EB82031C54401C0428FBDB521C90
:10238000122AF5DB00204C220A54401C0328FBDBF8
:10239000002052220B18401C83F844200328F9DB4C
:1023A0000020442201EB8003401CDA701128F9DB85
:1023B0006320C870432081F847004D2081F8230036
:1023C0004E2081F8270010BD9801002010B5FEF7BF
:1023D0002FFFBDE81040FFF7B2BC30B59FB0012120
:1023E0000804CDE900100024029402250491CDE9EF
:1023F00007504FF4E01009906846FFF7B7F900B1B5
:10240000FEE70F20CDE919054FF48060CDE91B40B0
:10241000022119A81D94FFF7CFF800B1FEE7802034
:102420000A90400013900AA8FEF7BAFF00B1FEE739
:10243000FFF764F94FF47A71B0FBF1F0FFF76BFC32
:102440000420FFF75BFC00221146501EFEF776FFCA
:102450001FB030BD1448016841F470010160134899
:10246000016841F0010101604168114A1140416079
:102470000168104A11400160016821F48021016067
:10248000416821F4FE014160C16A21F00F01C1627F
:10249000016B094A11400163002181600249C003B8
:1024A000803908607047000088ED00E000100240AD
:1024B0000CC07FF8FFFFF6FECCFC00FF2DE9F041D9
:1024C000DFF8F8817E4D7F4CD8F800104FF0FF36D2
:1024D000491CC8F800102868012811D15FF00000DD
:1024E00044F82060401C0A28FADB002705E00A2097
:1024F000FDF79EFF44F827007F1C28688742F6DD21
:102500007148FFF7AAFCD8F8000047460F2878D199
:1025100028684FF00008082802D14046C5F800801E
:10252000411C6A48296009291CD2DFE801F0B8057E
:102530001C32485E758CA2004FF48071FEF769FE74
:102540005FF0000044F82060401C0A28FADB0026F7
:1025500005E00A20FDF76CFF44F82600761C286889
:102560008642F6DD9BE04FF40071FEF752FE00203C
:1025700044F82060401C0A28FADB002605E00A2007
:10258000FDF756FF44F82600761C28688642F6DDE3
:1025900085E04FF48061FEF73CFE002044F82060A7
:1025A000401C0A28FADB002605E00A20FDF740FF60
:1025B00044F82600761C28688642F6DD6FE04FF46A
:1025C0000061FEF726FE002044F82060401C0A2827
:1025D000FADB002605E00A20FDF72AFF44F8260072
:1025E000761C28688642F6DD59E04FF48051FEF7EC
:1025F00010FE002044F82060401C0A28FADB002668
:1026000006E04EE00C20FDF713FF44F82600761C90
:1026100028688642F6DD42E04FF40051FEF7F9FDEE
:102620005FF0000044F82060401C0A28FADB002616
:1026300005E00C20FDF7FCFE44F82600761C286817
:102640008642F6DD2BE04FF48041FEF7E2FD0020EC
:1026500044F82060401C0A28FADB002605E00E2022
:10266000FDF7E6FE44F82600761C28688642F6DD73
:1026700015E04FF40041FEF7CCFD002044F8206047
:10268000401C0A28FADB002605E00E20FDF7D0FEEC
:1026900044F82600761C2868401C8642F5DDC7F801
:1026A00000800025396854F82500884201D1FFF7E1
:1026B0007BFD6D1C0A2DF5DBBDE8F08124000020B8
:1026C00014000020780000201801002000100048AD
:1026D000F0B41748174A01230168174C491C0160E0
:1026E00015680022092D1FD2DFE805F01E05080B32
:1026F0000E1114171A000C2914D015E00B2911D053
:1027000012E00A290ED00FE009290BD00CE00829AD
:1027100008D009E0072905D006E0062902D003E029
:10272000052901D123600260F0BC0448FFF795BB86
:10273000700000201400002020000020580100201C
:102740002DE9F0430268234B234D244E244C4FF0D7
:102750008049984207D0484505D0A84203D0B042EE
:1027600001D0A04203D122F070074A683A431D4FBE
:10277000DFF874C0DFF8748098420DD048450BD064
:10278000A84209D0B04207D0A04205D0B84203D039
:10279000604501D0404503D122F44075CA682A4300
:1027A0004D6922F080022A4302608A68C2620A6888
:1027B0008262984207D0A04205D0B84203D060455B
:1027C00001D0404501D10969016301214161BDE8A2
:1027D000F0830000002C014000040040000800408D
:1027E00000340140004001400044014000480140E5
:1027F000FEE700004FF480764A4C77004FF4806982
:102800004FF4006A4FF4005B4FF40048464D42E03D
:102810000021052000F080FA44A000F029FA0221EE
:10282000052000F079FA44A000F022FA03210520E7
:1028300000F072FA43A000F01BFA00F055F931469F
:102840002046FEF7E6FC39462046FEF7E2FC494604
:102850002046FEF7DEFC51462046FEF7DAFC4FF438
:1028600080512046FEF7D5FC59462046FEF7D1FCA4
:102870004FF480412046FEF7CCFC41462046FEF74F
:10288000C8FC4FF4FA70FEF7DBFB00F0E5F94FF4FB
:102890009670FEF7D5FBA8680128B9D100F024F99D
:1028A000002231462046FEF7B8FC00223946204679
:1028B000FEF7B3FC002249462046FEF7AEFC00229C
:1028C00051462046FEF7A9FC00224FF480512046D5
:1028D000FEF7A3FC002259462046FEF79EFC00228C
:1028E0004FF480412046FEF798FC002241462046E6
:1028F000FEF793FC0120286031462046FEF789FC54
:10290000FDF718FD1248FFF79BFA11484030FFF71A
:1029100097FA0F485438FEF7D3FA00BFFFF77CFC54
:10292000FCE700000010004814000020444541541A
:10293000482052414345000040686F64615F6D73F9
:102940007700000040736F67616E64445652000068
:102950001801002002E008C8121F08C1002AFAD19D
:1029600070477047002001E001C1121F002AFBD10F
:102970007047000030B54B4C85B00D46012903D996
:10298000A17841F00801A17000F140030246657191
:102990004021002000F0D4F9607828B1012D03D146
:1029A000A07840F00400A07000F0AAF80320039083
:1029B0000120019021783C480029E2880188638940
:1029C00041EA0201228942EA030241EA0201428805
:1029D00041EA0201828841EA020101D0C08808E090
:1029E000C288114302891143428911438289C089F7
:1029F0001143014300916946E068FEF741FB322034
:102A0000FEF71EFB0022E188E068FEF706FC0022CC
:102A10006189E068FEF701FC2189FF2903D00022CB
:102A2000E068FEF7FAFBA078C10615D4032000F099
:102A300097F90520FEF704FB032000F091F905202B
:102A4000FEF7FEFA032000F08BF90120FEF7F8FAFA
:102A5000022000F085F913E040F0200000F02FF88C
:102A60000520FEF7EDFAA07840F0200000F027F8EE
:102A70000120FEF7E5FAA07840F0200000F01FF8F2
:102A8000A07840F0200000F01AF80420E07000F078
:102A90002BF800F00BF802202071062000F00FF850
:102AA00005B030BD00000020B400002010B50120AA
:102AB00000F005F8BDE810400220FEF7C1BA002181
:102AC00000F008B970B50D4600F00700402141EA5A
:102AD000C000FFF7F4FF00240121285D00F0FAF8A0
:102AE000641C082CF8DB70BD0449C87840F0040071
:102AF000C87040F00800FFF7E2BF000000000020AF
:102B0000234808B5C1682348B1F1904F0BD0224A41
:102B1000914210D1416941F480214161406900F442
:102B20008020009008BD416941F400314161406955
:102B300000F40030F5E7194A914207D1416941F4A8
:102B400000214161406900F40020EAE7144A914203
:102B500007D1416941F480114161406900F480105E
:102B6000DFE7104A914207D1416941F40011416108
:102B7000406900F40010D4E70B4A9142D2D1416978
:102B800041F480014161406900F48000C9E7000020
:102B90000000002000100240000400480008004827
:102BA000000C004800100048001400482DE9F05FB8
:102BB0000AAC94E8E05F0F4CE28023816581E1601C
:102BC0000D490E804F80A1F80480A1F80690A1F86D
:102BD00008A0A1F80AB0A1F80CC0A1F80EE008B155
:102BE000002000E01020A070BDE8F05F022110205E
:102BF000FFF7C0BE00000020B40000201FB5FEF7A4
:102C00001FFBFFF7EAFBFFF747FAFFF78DFAFFF725
:102C1000ABFAFFF70DFA4FF480435A1051104810E9
:102C20008DE80F0043108210C1100948FFF7DCF94E
:102C300004211420FFF79EFE064C0025A560FFF737
:102C400093FBE560082025616060FFF7D3FD00007D
:102C5000000C0048140000200449C87820F004004B
:102C6000C87040F00800FFF72ABF000000000020F5
:102C700070B500280FD00446FDF7B4FA05460026CB
:102C800006E000BF14F8010B012100F023F8761CC8
:102C90006D1EF7D2304670BD10B50D4C0022618913
:102CA000E068FEF7BAFA0120FEF7CAF9012261894D
:102CB000E068FEF7B2FA0120FEF7C2F9002261894E
:102CC000E068FEF7AAFABDE810400120FEF7B8B9A7
:102CD0000000002070B50F4C05460A46E188E06808
:102CE000FEF79BFA2189FF2903D00022E068FEF756
:102CF00094FAA078C00604D52846BDE8704000F0DC
:102D000049B8280900F02CF82846BDE8704000F0CA
:102D100027B8000000000020042900D30321074A3F
:102D20005279914201D3521ED1B2044A1032515C01
:102D30000844C0B240F08000FFF7C1BE0000002090
:102D400010B5034C20706170A270E37010BD0000DC
:102D50001000002010B50121FFF7BCFF012010BDBD
:102D60002DE9F041094E0A4F0546002425FA04F0EA
:102D700000F0010236F81410F868FEF74EFA641CF1
:102D8000042CF3DBBDE8F041FFF786BFB400002060
:102D9000000000202DE9F041094E0A4F05460024AD
:102DA00025FA04F000F0010236F81410F868FEF776
:102DB00034FA641C082CF3DBBDE8F041FFF76CBF6C
:102DC000B4000020000000200203040506070809E3
:102DD0000A0B0C0D0E0F1010010203040506070864
:102DE000090A0B0C0D0E0F1000000000000000007F
:102DF0000102030406070809182E0008000000203D
:102E0000B400000054290008CC2E0008B4000020B3
:102E10002C050000642900080100000000000000EB
:102E200000000000000000000000000000000000A2
:102E30000000000000000000000000000000000092
:102E400000000000000000001818181818181818C2
:102E500003030303030303030000000000001F1F1C
:102E60000303030303031F1F1818181818181F1F44
:102E70001B1B040E041F0E04131F1B18181B1F031B
:102E8000191F1B03031B1F18000000000000000097
:102E9000FFFFFFFF00000000000000000000000036
:102EA0000000000000000000000000000000000022
:102EB0000000000000000000010000001000000001
:0C2EC0000000000000127A00000000007A
:040000050800018965
:00000001FF
